:1070000055C1000057C4000055C4000053C400001F
:1070100051C400004FC400004DC400004BC4000028
:1070200049C4000047C4000045C4000043C4000038
:1070300041C400003FC400003DC400003BC4000048
:1070400039C4000037C4000035C4000033C4000058
:1070500031C400002FC400002DC400002BC4000068
:1070600029C4000027C400004E6574776F726B203E
:10707000696E697420646F6E650009202020204DC0
:1070800041433A200009476174657761793A2000ED
:1070900009205375626E65743A2000094164647278
:1070A0006573733A20004275696C742D696E2073A4
:1070B000657474696E677300454550524F4D207377
:1070C000657474696E677300204E65743A200052CF
:1070D0006573706F6E73652073656E740053656EB3
:1070E000742046696E616C2041434B0053656E7499
:1070F0002041434B000005000346756C6C00000501
:1071000000044F70636F64653F0000050000457226
:10711000726F7200537461727420757365722061AE
:1071200070700041726961646E6520666F72204103
:10713000726475696E6F20556E6F2C205665727380
:10714000696F6E20302E35004D61696E3A2000491E
:107150006E697420736F636B657420746F20706F39
:1071600072742000496E76616C6964206F70636F81
:10717000646520004572726F720041636B6E6F77B9
:107180006C6564676500466C617368696E6720634F
:107190006F6D706C657465005061636B6574206C15
:1071A000656E6774682061646A75737465642074C1
:1071B0006F200057726974696E6720646174612082
:1071C00066726F6D20616464726573732000466C33
:1071D0006173682069732066756C6C00446174612A
:1071E00020626C6F636B004368616E676564207436
:1071F0006F20706F72742000577269746520726519
:10720000717565737400526561642072657175658E
:1072100073740020616E642064617461206C656E1B
:1072200067746820002077697468206F70636F64EA
:107230006520005468697320697320626C6F636B0A
:1072400020005365742075702072657475726E200D
:1072500061646472657373004F766572666C6F77F4
:107260000050726F63657373696E67207061636B42
:107270006574206F662073697A6520000944617423
:1072800061506F72743A20005446545020736572F6
:1072900076657220696E697420646F6E650054664D
:1072A00074703A20000D0A003078000011241FBECF
:1072B000CFEFD8E0DEBFCDBF11E0A0E0B1E0EEE35C
:1072C000FFE702C005900D92AC31B107D9F721E07C
:1072D000ACE1B1E001C01D92AB32B207E1F701D0E1
:1072E0002CC6CDB7DEB7C150D140DEBFCDBF14BE76
:1072F0000FB6F894A8958091600088618093600033
:10730000109260000FBE99E288E10FB6F894A8953C
:10731000809360000FBE909360002FEF83EC99E0A4
:10732000215080409040E1F700C00000112484E02B
:107330008093810080E090E0EAD5882321F060E02E
:1073400080E090E0ECD581E090E0E1D5843021F060
:1073500064E081E090E0E3D582E08093C00088E1C2
:107360008093C10086E08093C20080E18093C400D6
:1073700063E271E788E491E711D38CE385B98CE28D
:1073800084B95C9A549A81E08DBD83E090E0BFD5CA
:107390008535C1F484E090E0BAD58A3A99F4F1E0F9
:1073A000EF2EF1E0FF2E05E010E0C801B0D5F701A7
:1073B00081937F010F5F1F4F07311105B1F768EB14
:1073C00070E702C066EA70E788EC90E7E7D26BE905
:1073D00070E788EC90E7E2D2EFE0EE2EE1E0FE2EDF
:1073E0001FE0F70161917F0170E080E090E042E0F2
:1073F000A8D2123111F08EE274D21F5F133189F7D7
:1074000060E970E788EC90E7C9D275E0E72E71E09B
:10741000F72E15E0F70161917F0170E080E090E0C8
:1074200042E08FD2183011F08EE25BD21F5F19302C
:1074300089F765E870E788EC90E7B0D261E0E62E66
:1074400061E0F62E01E0F70161917F0170E080E0DC
:1074500090E042E076D2043011F08EE242D20F5F2B
:10746000053089F76AE770E788EC90E797D259E032
:10747000E52E51E0F52EF70161917F0170E080E08B
:1074800090E042E05ED21E3011F08EE22AD21F5F01
:107490001F3089F740E0E42E41E0F42E00E010E0D8
:1074A000F70141917F0160E0C801BFD20F5F1F4F1C
:1074B0000A311105A9F70FE110E442E060E0C801CC
:1074C000B4D242E060E0C8010197AFD213950F310A
:1074D000F8E41F0791F768E670E788EC90E75ED262
:1074E0001BD31092220110922101DD24D3948E012E
:1074F0000F5F1F4F4E0121E8820E911C21E1322EB9
:1075000033E0C32EA12CB12C809122018111AEC099
:1075100068E686E293E471D2892B09F4A7C0D09281
:10752000210168E682E093E44AD282FF0FC044E082
:107530006CE682E093E479D28FEF97E8E3E1815043
:107540009040E040E1F700C00000EBCF68E686E243
:1075500093E453D215D3282E60E084E293E44DD215
:1075600098567C01F2E02F1631F1F21520F021E05F
:10757000221689F007C083E02816A9F094E02916A6
:1075800009F43CC14AE050E06AE071E7C801B6D4B2
:107590002AE028014BC04CE050E06EEF70E7C801D4
:1075A000ADD42CE0F6CF49E050E065EF70E7C801BC
:1075B000A5D429E0EECF8091230190912401209160
:1075C0002501309126012817390720F490932601D0
:1075D000809325016CEE70E78EE992E7DFD1198286
:1075E000E4E0EA8380912301909124019B838C83C2
:1075F00024E0CFCFF20141912F013701FFEF6F1A45
:107600007F0A64E7C701CF5FDE4F2883C150D140B6
:107610000CD2CF5FDE4F2881C150D140611480EA87
:10762000780619F4612C98E9792E7301215010F72E
:10763000B701785984E293E416D240E26CE681E027
:1076400093E4F3D168E681E093E4B9D18111FACFF4
:107650006FEC70E78EE992E7A1D194E0291206C0A1
:1076600040E16CE681E093E4E0D10AC18091210120
:107670008111C7C08091C00087FFC3C01CD1D092C8
:10768000220123D18134B9F420D1CF5FDE4F88832A
:10769000C150D1402DD1CF5FDE4F8881C150D14044
:1076A000823811F484E003C0813819F480E019D1E4
:1076B000A2C083E0FCCF823411F484E103C085349E
:1076C00019F484E021D197C0853569F4FED0F82EF5
:1076D000FCD02F2D30E0382B220F331F30931E01AA
:1076E00020931D0187C0863519F484E00DD1DECFCB
:1076F000843609F050C0E9D0E8D080931C01E5D071
:10770000E0901D01F0901E01E114E0E7FE0620F478
:10771000F701C0925700E8953801D7D0F301819363
:107720003F0180911C01815080931C018111F5CF94
:10773000E114F0E7FF0620F0F701C0925700E8954A
:10774000D7D007B600FCFDCF8981D8019701201B57
:10775000310BBD01620F731F1296AD0141505109EB
:10776000FA01408190E0942BFB010C01D09257006C
:10777000E8951124A815B90511F08C91EACF25E000
:10778000F70120935700E89507B600FCFDCF309233
:107790005700E89530C08437D1F497D096D08093C5
:1077A0001C0193D0A5D0E0911D01F0911E01CF01E5
:1077B000019690931E0180931D01849192D0809137
:1077C0001C01815080931C018111EDCF14C08537BD
:1077D00039F48ED08EE185D085E983D08FE067CFF4
:1077E000813541F485D06EEE82E090E098D380E15F
:1077F00078D046C07DD080E174D003C06DED70E7D5
:10780000EBCEF501859194910196B9F08091290113
:1078100090912A010A9788F082E090E078D38E3E1A
:1078200079F180912101813041F4F501C092570036
:10783000E89572D140D010922101A89580918400E2
:107840009091850094FF05C035B120E2232725B92A
:1078500001C02D9820911F013091200182179307BC
:1078600050F42091290130912A012F5F3F4F30932E
:107870002A01209329019093200180931F0144CE77
:107880000FB6F894A895809160008861809360009D
:10789000109260000FBE64E171E788E491E77ED04A
:1078A000EE27FF27099480E090E0CF5FDE4FDEBF38
:1078B000CDBF0895A5CB1092850010928400109240
:1078C0002A0110922901A89508958091C00087FF90
:1078D000FCCF8091C00084FD01C0A8958091C600B6
:1078E00008959091C00095FFFCCF8093C600089545
:1078F000ECDF803239F088E18093600088E080938B
:107900006000FFCF84E1EDCFCF93C82FDEDFC15001
:10791000E9F7CF91EDCF0F931F93CF93DF938C01B6
:10792000D0E0F801ED0FF11DC491CC2311F08C2FA4
:10793000D8DFDF5FC111F5CFDF91CF911F910F919C
:107940000895CF92DF92EF92FF92CF936B017C016B
:10795000C42F88EA92E7DFDFCC23D1F08C2F90E0B0
:107960000197880F991F880F991FA701960104C0DE
:1079700056954795379527958A95D2F7DA01C9012B
:107980008F708A3008F0895F805DABDFC150E4CF33
:10799000CF91FF90EF90DF90CF9008950F931F93BA
:1079A000CF93DF938C01EB0185EA92E7B4DFC80146
:1079B000B2DFCE01DF91CF911F910F91ACCF20E5C7
:1079C0002CBD2A98292F33272EBD0DB407FEFDCFDD
:1079D0008EBD0DB407FEFDCF1EBC0DB407FEFDCF5E
:1079E00081E08EBD0DB407FEFDCF1EBC0DB407FEB9
:1079F000FDCF2A9A8EB51CBC08950F931F93CF9389
:107A0000DF938C01D62FDBDFC82F6D2FC8010196C5
:107A1000D6DF2C2F30E0322F2227A901482BCA01B4
:107A2000DF91CF911F910F91089520E52CBD2A98E9
:107A3000292F33272EBD0DB407FEFDCF8EBD0DB40B
:107A400007FEFDCF80E88EBD0DB407FEFDCF81E0BF
:107A50008EBD0DB407FEFDCF4EBD0DB407FEFDCFAC
:107A60002A9A1CBC08950F931F93CF93DF93EC01C8
:107A70008B01472F55276CE6CE01D7DF402F6CE6F0
:107A8000CE010196DF91CF911F910F91CECFCF9371
:107A9000DF93EC016FE471E78EE992E77FDFBE01CF
:107AA00080E090E044E04DDF40E16CE681E093E46B
:107AB000BCDF68E681E093E482DF8111FACF4FEF0B
:107AC0006CE682E093E4B1DF42E06CE680E093E4B0
:107AD000ACDFBE0184E093E4C6DF41E06CE681E008
:107AE00093E4A3DF68E681E093E469DF8111FACFD4
:107AF00068E683E093E463DF823229F040E16CE6DC
:107B000081E093E492DF68E683E093E458DF823219
:107B1000B1F6DF91CF910895CF9385E490E0B7DF80
:107B200087E190E0F4D18B3B91F489E190E0EFD1D3
:107B3000C82F88E190E0EBD12C2F30E0322F2227A4
:107B4000280F311D309328012093270106C089E7B3
:107B500097EB909328018093270168E872E78EE9FC
:107B600092E71CDF6CE772E78EE992E717DF60911E
:107B700027017091280180E090E044E0CF91E1CEB0
:107B8000AF92BF92CF92DF92EF92FF920F931F932B
:107B9000CF93DF93CDB7DEB7CC50D240DEBFCDBFA1
:107BA0008C0161E672E78EE992E7F8DEB80180E0C9
:107BB00090E044E0C6DE0115184028F068E572E761
:107BC0008EE992E7EBDE68E688E293E416DF009741
:107BD00011F480E098EDFE0131967F015E01F3EF34
:107BE000AF1AFDEFBF0A8701A016B10691F06C0134
:107BF0002FEFC21AD20A60E0E2DEF80181938F0112
:107C0000C114F0EEDF0619F4C12C48EDD42EC601E4
:107C1000EBCFBC0188E293E426DF40E46CE681E030
:107C200093E403DF68E681E093E4C9DE8111FACFD3
:107C30000CE013E4F70141917F016CE6C801F5DE29
:107C40000F5F1F4F0231F3E41F07A1F762E472E7F1
:107C50008EE992E7A3DECF80D12CDC2CCC24888562
:107C6000C80ED11C698570E0762F66278A858B0146
:107C7000080F111DEB85F0E0FE2FEE278C855F01CC
:107C8000A80EB11C63E372E78EE992E787DEB501C7
:107C900080E090E044E055DE85E292E73CDEB8010A
:107CA00080E090E044E04DDE83E192E734DE76014F
:107CB00024E0E21AF108B70180E090E044E041DE00
:107CC0000330110591F439E3A316B10460F48091F7
:107CD000250190912601A816B90628F001968A156B
:107CE0009B0508F047C000E010E085E0C81682E080
:107CF000D80608F044C00230110589F038F401308C
:107D0000110509F03EC066E072E72FC0043011058E
:107D100051F105301105A9F564E771E726C0CBDD07
:107D200068EF71E78EE992E739DE6FEF82E090E06D
:107D3000F6D00091270110912801C801A8DE67EE56
:107D400071E78EE992E72ADEB80180E090E044E036
:107D5000F8DD109226011092250110922401109254
:107D6000230112E0BBC06AE771E78EE992E716DEF5
:107D700010E0B4C025E0C21622E0D20698F000E080
:107D800010E064E671E78EE992E708DEB80180E072
:107D900090E044E0D6DD809127019091280177DEC4
:107DA00011E09CC088DD6CED71E78EE992E7F6DDAD
:107DB000B0922401A0922301E1E0AE1AB108BA2CDE
:107DC000AA24BB0CC7018A0D9B1D8130904738F057
:107DD0006EEC71E78EE992E7E1DD13E07FC063EBC3
:107DE00071E78EE992E7DADDC501A0E0B0E046E098
:107DF000BC01CD01A6DDE11422E0F20610F414E08E
:107E000001C012E0C7018F779927892B21F03FEF3E
:107E1000E31AF30AF7CF68E971E78EE992E7BEDD6E
:107E2000C701A0E0B0E044E0BC01CD018ADDA114AF
:107E3000B10499F4DE011E96CE018E5B9F4FFD01C9
:107E4000319720812C3009F048C02C91243909F059
:107E500044C01496A817B90791F7DE011E9620E0DA
:107E600030E041E053E065E071E12E153F0548F553
:107E7000FD0131978081EC9190E09E2BF5010C0182
:107E800040935700E89511242E5F3F4FC9018F772B
:107E90009927892B89F4EE57F10950935700E895FB
:107EA00007B600FCFDCF60935700E89507B600FCCD
:107EB000FDCF70935700E8951296F2E0AF0EB11C1B
:107EC000D4CF143059F466E871E78EE992E766DDA5
:107ED0006EEE82E090E023D001C015E0812FC45FF8
:107EE000DD4FDEBFCDBFDF91CF911F910F91FF908E
:107EF000EF90DF90CF90BF90AF900895FB01DC0131
:107F000002C005900D9241505040D8F70895F9995C
:107F1000FECF92BD81BDF89A992780B50895262F8E
:107F2000F999FECF1FBA92BD81BD20BD0FB6F8945E
:0E7F3000FA9AF99A0FBE01960895F894FFCFC1
:107F3E0080C0A801FEFFFFFF00DEADBEEFFEEDC06C
:0C7F4E00A801800000000007D00800001F
:040000030000700089
:00000001FF
