:020000021000EC
:10E000006AC10000A4C40000A2C40000A0C40000B3
:10E010009EC400009CC400009AC4000098C4000084
:10E0200096C4000094C4000092C4000090C4000094
:10E030008EC400008CC400008AC4000088C40000A4
:10E0400086C4000084C4000082C4000080C40000B4
:10E050007EC400007CC400007AC4000078C40000C4
:10E0600076C4000074C4000072C4000070C40000D4
:10E070006EC400006CC400006AC4000068C40000E4
:10E0800066C4000064C4000062C400004E6574777A
:10E090006F726B20696E697420646F6E6500092071
:10E0A0002020204D41433A20000947617465776183
:10E0B000793A200009205375626E65743A20000990
:10E0C000416464726573733A20004275696C742D03
:10E0D000696E2073657474696E67730045455052AC
:10E0E0004F4D2073657474696E677300204E6574BC
:10E0F0003A2000526573706F6E73652073656E749D
:10E100000053656E742046696E616C2041434B007C
:10E1100053656E742041434B000005000346756C47
:10E120006C00000500044F70636F64653F000005DC
:10E1300000004572726F72005374617274207573BF
:10E140006572206170700041726961646E6520665D
:10E150006F722041726475696E6F204D6567613121
:10E16000323834502C2056657273696F6E20302E11
:10E1700035004D61696E3A2000496E697420736FF5
:10E18000636B657420746F20706F72742000496E29
:10E1900076616C6964206F70636F646520004572FE
:10E1A000726F720041636B6E6F776C6564676500B8
:10E1B000466C617368696E6720636F6D706C65741F
:10E1C00065005061636B6574206C656E67746820D0
:10E1D00061646A757374656420746F200057726996
:10E1E00074696E6720646174612066726F6D20616E
:10E1F0006464726573732000466C61736820697390
:10E200002066756C6C004461746120626C6F636B96
:10E21000004368616E67656420746F20706F72746C
:10E22000200057726974652072657175657374009A
:10E230005265616420726571756573740020616E4A
:10E24000642064617461206C656E677468200020CE
:10E2500077697468206F70636F6465200054686923
:10E260007320697320626C6F636B200053657420A8
:10E2700075702072657475726E2061646472657366
:10E2800073004F766572666C6F770050726F6365CE
:10E290007373696E67207061636B6574206F6620AD
:10E2A00073697A6520000944617461506F72743A31
:10E2B0002000544654502073657276657220696E52
:10E2C000697420646F6E6500546674703A20000DA6
:10E2D0000A003078000011241FBECFEFD0E4DEBF6B
:10E2E000CDBF11E0A0E0B1E0EAE2F0EF01E00BBF4A
:10E2F00002C007900D92AC31B107D9F721E0ACE133
:10E30000B1E001C01D92AB32B207E1F701D08BC67C
:10E31000CDB7DEB7C750D140DEBFCDBF14BE0FB6FC
:10E32000F894A895809160008861809360001092B5
:10E3300060000FBE99E288E10FB6F894A89580932B
:10E3400060000FBE909360002FEF33EC49E0215046
:10E3500030404040E1F700C00000112484E0809389
:10E36000810080E090E049D6882321F060E080E0E1
:10E3700090E04BD681E090E040D6843021F064E01C
:10E3800081E090E042D682E08093C00088E18093F3
:10E39000C10086E08093C20080E18093C40067E4FE
:10E3A00071EE82E791EE55D380EF85B980EB84B9A9
:10E3B000479A3F9A81E08DBD83E090E01ED6853577
:10E3C000C1F484E090E019D68A3A99F4F1E0EF2E96
:10E3D000F1E0FF2E05E010E0C8010FD6F7018193B0
:10E3E0007F010F5F1F4F07311105B1F76CED70EE24
:10E3F00002C06AEC70EE8CEE90EE2BD36FEB70EEF9
:10E400008CEE90EE26D3EFE0EE2EE1E0FE2E1FE044
:10E41000F70161917F0170E080E090E042E0ECD292
:10E42000123111F08EE2AAD21F5F133189F764EB2B
:10E4300070EE8CEE90EE0DD375E0E72E71E0F72EC6
:10E4400015E0F70161917F0170E080E090E042E02B
:10E45000D3D2183011F08EE291D21F5F193089F7B4
:10E4600069EA70EE8CEE90EEF4D261E0E62E61E0A7
:10E47000F62E01E0F70161917F0170E080E090E00D
:10E4800042E0BAD2043011F08EE278D20F5F05304C
:10E4900089F76EE970EE8CEE90EEDBD259E0E52E56
:10E4A00051E0F52EF70161917F0170E080E090E08E
:10E4B00042E0A2D21E3011F08EE260D21F5F1F3008
:10E4C00089F740E0E42E41E0F42E00E010E0F7018F
:10E4D00041917F0160E0C801FFD20F5F1F4F0C31F7
:10E4E0001105A9F76CE870EE8CEE90EEB2D266D30F
:10E4F00010922201109221018EE291EE4C01A12C8A
:10E50000B12CFFEFAF1ABF0A89E191EE2C01612C0B
:10E51000712C2FEF621A720A82E291EEA0E0B0E055
:10E520009C01AD014F5F5F4FCD5FDE4F2883398384
:10E530004A835B83C350D140AE014F5F5E4FCF5FD4
:10E54000DE4F59834883C150D1408091220181110F
:10E55000AAC068E686E297E0A7D2892B09F4A3C097
:10E5600081E08093210168E682E097E083D282FF18
:10E570000FC044E06CE682E097E0AED25FEF87E840
:10E5800093E1515080409040E1F700C00000EBCF94
:10E5900068E686E297E088D245D3182F60E084E2EF
:10E5A00097E082D2985A7C01123069F118F4113048
:10E5B00091F005C01330F1F0143009F463C12AE082
:10E5C00030E0B501A401CE0101960DD50AE0FE01AF
:10E5D00031961F0149C02CE030E0CD5FDE4F48810D
:10E5E00059816A817B81C350D140CE010196FBD411
:10E5F0000CE0EDCF29E030E0B301A201CE0101969D
:10E60000F2D409E0E4CF809123019091240120917C
:10E610002501309126012817390720F4909326010F
:10E620008093250160E171EE88EC92EE12D219829E
:10E6300084E08A8380912301909124019B838C83C1
:10E6400004E0C5CFF10141911F016701FFEFCF1A2F
:10E65000DF0A64E7C70140D2C11420E6D20619F4EC
:10E66000C12C38E5D32E7601015060F7B7017855FB
:10E6700084E297E04AD240E26CE681E097E02CD257
:10E6800068E681E097E0F6D18111FACF63EF70EE92
:10E6900088EC92EEDED1143031F440E16CE681E09A
:10E6A00097E01AD23AC1809121018111EEC0809188
:10E6B000C00087FFEAC04CD181E08093220152D193
:10E6C0008134B9F44FD1C95FDE4F8883C750D14040
:10E6D0005CD1C95FDE4F8881C750D140823811F4C8
:10E6E00084E003C0813819F480E048D1C8C083E0D9
:10E6F000FCCF823411F484E103C0853419F484E042
:10E7000050D1BDC08535A1F42DD1182F2BD1212F8B
:10E7100030E0A901582BCA01292F221F2227221FCE
:10E720002BBF880F991F90931E0180931D01A6C0D7
:10E73000863519F484E035D1D7CF843609F06EC020
:10E7400011D110D180931C010DD1E0901D01F090EA
:10E750001E01E11450EEF50650F4C701A0E0B0E050
:10E7600023E0FC01A0935B0020935700E8958E0105
:10E770000F5F1F4FF7D0F80181938F0180911C012B
:10E78000815080931C018111F5CFE114F0EEFF065A
:10E7900050F0C701A0E0B0E023E0FC01A0935B00D3
:10E7A00020935700E895F1D007B600FCFDCF898192
:10E7B000DE01119697012A1B3B0B11E0AD01420FC0
:10E7C000531F129660E070E0FD013197E08190E008
:10E7D0009E2B0C01FA0160935B0010935700E895A3
:10E7E0001124CF5FDE4F48815981C150D140A41719
:10E7F000B50711F08C91E2CFC701A0E0B0E025E0B1
:10E80000FC01A0935B0020935700E89507B600FC3D
:10E81000FDCF81E180935700E89531C08437D9F46A
:10E82000A1D0A0D080931C019DD0AFD000911D013C
:10E8300010911E01F8018691A1D00F5F1F4F109318
:10E840001E0100931D0180911C01815080931C01C9
:10E850008111ECCF14C0853739F497D08EE18ED07A
:10E8600087E98CD085E041CF813541F48ED06EEEC2
:10E8700082E090E0CAD380E181D04FC086D080E1B1
:10E880007DD003C061E071EECFCE80E090E0DC018E
:10E89000ABBFFC01879196910196E9F08091290127
:10E8A00090912A010A97B8F082E090E0A6D38E3EBC
:10E8B000A1F180912101813071F440E050E0BA0172
:10E8C00083E0FA0160935B0080935700E89576D16E
:10E8D0003FD010922101A8958091840090918500ED
:10E8E00094FF04C02BB120582BB901C05F98209130
:10E8F0001F01309120018217930750F420912901C4
:10E9000030912A012F5F3F4F30932A012093290134
:10E910009093200180931F0118CE0FB6F894A8950C
:10E9200080916000886180936000109260000FBE4B
:10E9300068E371EE82E791EE8CD0EE27FF27099411
:10E9400080E090E0C95FDE4FDEBFCDBF089558CBB9
:10E95000109285001092840010922A0110922901D1
:10E96000A89508958091C00087FFFCCF8091C000DA
:10E9700084FD01C0A8958091C60008959091C000C3
:10E9800095FFFCCF8093C6000895ECDF803239F00C
:10E9900088E18093600088E080936000FFCF84E18D
:10E9A000EDCFCF93C82FDEDFC150E9F7CF91EDCF88
:10E9B000CF92DF92EF92FF92CF93DF93C0E06C0192
:10E9C000E12CF12C8FEFE81AF80AB701A6014C0FE1
:10E9D000511D611D711D6BBFFA01D791DD2311F02F
:10E9E0008D2FCCDFCF5FD111F0CFDF91CF91FF9092
:10E9F000EF90DF90CF900895CF92DF92EF92FF9249
:10EA0000CF936B017C01C42F82ED92EED1DFCC233A
:10EA1000D1F08C2F90E00197880F991F880F991FD4
:10EA2000A701960104C056954795379527958A9575
:10EA3000D2F7DA01C9018F708A3008F0895F805DF2
:10EA40009DDFC150E4CFCF91FF90EF90DF90CF904A
:10EA500008950F931F93CF93DF938C01EB018FECFD
:10EA600092EEA6DFC801A4DFCE01DF91CF911F9106
:10EA70000F919ECF20E52CBD2C982FE02EBD0DB41C
:10EA800007FEFDCF292F33272EBD0DB407FEFDCF86
:10EA90008EBD0DB407FEFDCF1EBC0DB407FEFDCF2D
:10EAA0002C9A8EB51CBC08950F931F93CF93DF93C0
:10EAB0008C01D62FDFDFC82F6D2FC8010196DADF5A
:10EAC0002C2F30E0322F2227A901482BCA01DF91D9
:10EAD000CF911F910F91089520E52CBD2C9820EF28
:10EAE0002EBD0DB407FEFDCF292F33272EBD0DB44B
:10EAF00007FEFDCF8EBD0DB407FEFDCF4EBD0DB49C
:10EB000007FEFDCF2C9A1CBC08950F931F93CF9343
:10EB1000DF93EC018B01472F55276CE6CE01DCDF3C
:10EB2000402F6CE6CE010196DF91CF911F910F919E
:10EB3000D3CFCF93DF93EC0169E771EE88EC92EECF
:10EB400088DFBE0180E090E044E056DF40E16CE603
:10EB500081E097E0C1DF68E681E097E08BDF81111B
:10EB6000FACF4FEF6CE682E097E0B6DF42E06CE66A
:10EB700080E097E0B1DFBE0184E097E0C6DF41E0CE
:10EB80006CE681E097E0A8DF68E681E097E072DF5D
:10EB90008111FACF68E683E097E06CDF823229F0DA
:10EBA00040E16CE681E097E097DF68E683E097E07C
:10EBB00061DF8232B1F6DF91CF910895CF9385E482
:10EBC00090E0B7DF87E190E018D28B3B91F489E1C8
:10EBD00090E013D2C82F88E190E00FD22C2F30E0C4
:10EBE000322F2227280F311D30932801209327012F
:10EBF00006C089E797EB909328018093270162EB89
:10EC000072EE88EC92EE25DF66EA72EE88EC92EE08
:10EC100020DF609127017091280180E090E044E0BE
:10EC2000CF91EACE3F924F925F926F927F928F92F6
:10EC30009F92AF92BF92CF92DF92EF92FF920F938B
:10EC40001F93CF93DF93CDB7DEB7CC50D240DEBF5A
:10EC5000CDBF8C016BE872EE88EC92EEFADEB80163
:10EC600080E090E044E0C8DE0115184028F062E83A
:10EC700072EE88EC92EEEDDE68E688E297E014DF53
:10EC8000009711F480E098E7FE0131967F015E0164
:10EC9000F3EFAF1AFDEFBF0A8701A016B10691F09E
:10ECA0006C012FEFC21AD20A60E0E4DEF801819312
:10ECB0008F01C114F0E8DF0619F4C12C88E7D82EC3
:10ECC000C601EBCFBC0188E297E01FDF40E46CE6B1
:10ECD00081E097E001DF68E681E097E0CBDE81111B
:10ECE000FACF0CE017E0F70141917F016CE6C80113
:10ECF000F3DE0F5F1F4F0231F7E01F07A1F76CE64D
:10ED000072EE88EC92EEA5DEEF80F12CFE2CEE2464
:10ED10008885E80EF11C698570E0762F66278A8564
:10ED20008B01080F111DCB84D12CDC2CCC248C85BD
:10ED3000C80ED11C6DE572EE88EC92EE8ADEB6014B
:10ED400080E090E044E058DE8FE492EE31DEB801DE
:10ED500080E090E044E050DE8DE392EE29DE570142
:10ED600024E0A21AB1082501612C712C44E0C301F2
:10ED7000B20142DE0330110591F439EFC316D1041C
:10ED800060F48091250190912601C816D90628F0DB
:10ED900001968C159D0508F047C000E010E085E065
:10EDA000E81682E0F80608F044C00230110589F048
:10EDB00038F40130110509F03EC060E372EE2FC057
:10EDC0000430110551F105301105A9F56EE971EE18
:10EDD00026C0BEDD62E272EE88EC92EE3ADE6FEFA4
:10EDE00082E090E012D10091270110912801C80122
:10EDF000A0DE61E172EE88EC92EE2BDEB80180E0DD
:10EE000090E044E0F9DD1092260110922501109265
:10EE100024011092230112E0CFC064EA71EE88EC65
:10EE200092EE17DE10E0C8C085E0E81682E0F80632
:10EE300098F000E010E06EE871EE88EC92EE09DEEA
:10EE4000B80180E090E044E0D7DD80912701909107
:10EE500028016FDE11E0B0C07BDD66E072EE88EC69
:10EE600092EEF7DDD0922401C0922301C6010197F2
:10EE70006C01CC0CCD2CCC1CDD08D194E12CF12CF8
:10EE8000B601552744276C01E12CF12CE9E0CC0CAC
:10EE9000DD1CEE1CFF1CEA95D1F7EE24FF24C42AEA
:10EEA000D52AE62AF72A4C0C5D1C6E1C7F1CE1E07B
:10EEB0004E16E0EF5E06E1E06E06710438F068EF92
:10EEC00071EE88EC92EEC5DD13E076C06DED71EE6B
:10EED00088EC92EEBEDD46E0C701B6018DDDA114DF
:10EEE000F2E0BF0610F414E001C012E0AA2021F005
:10EEF0002FEFA21AB20AFACF62EC71EE88EC92EE12
:10EF0000A8DDC501A0E0B0E044E0BC01CD0174DDA6
:10EF1000DE011E9680E090E001E02601370131E03D
:10EF2000531A6108710823E0922E35E0832E41E1E7
:10EF3000342E8A159B0508F034C0B701A601480F8E
:10EF4000591F611D711DFD0131972081EC9130E049
:10EF50003E2B0901FA0160935B0000935700E8958E
:10EF60001124029681111BC0A3019201280F391FA1
:10EF7000411D511DF90140935B0090925700E895A7
:10EF800007B600FCFDCFF90140935B00809257006B
:10EF9000E89507B600FCFDCF30925700E895129631
:10EFA000C8CF143049F460EB71EE88EC92EE51DD7D
:10EFB0006EEE82E090E029D0812FC45FDD4FDEBF8E
:10EFC000CDBFDF91CF911F910F91FF90EF90DF9018
:10EFD000CF90BF90AF909F908F907F906F905F90F9
:10EFE0004F903F9008956BBFFA01DC0102C007907B
:10EFF0000D9221503040D8F70895F999FECF92BD77
:10F0000081BDF89A992780B50895262FF999FECFEA
:10F010001FBA92BD81BD20BD0FB6F894FA9AF99A35
:0AF020000FBE01960895F894FFCF8B
:10F02A0080C0A801FEFFFFFF00DEADBEEFFEEDC00F
:0CF03A00A801800000000007D0805555A0
:040000031000E00009
:00000001FF
