:1070000044C000005DC000005BC0000059C000002B
:1070100057C0000055C0000053C0000051C0000020
:107020004FC000004DC000004BC0000049C0000030
:1070300047C0000045C0000043C0000041C0000040
:107040003FC000003DC000003BC0000039C0000050
:1070500037C0000035C0000033C0000031C0000060
:107060002FC000002DC00000090005000346756C0C
:107070006C000A000500004F70636F64653F0008F4
:10708000000500004572726F720011241FBECFEF21
:10709000D8E0DEBFCDBF11E0A0E0B1E0E8E4FAE760
:1070A00002C005900D92AC31B107D9F721E0ACE1F7
:1070B000B1E001C01D92AB32B207E1F730D2C2C4D9
:1070C0009FCF109285001092840010922A01109296
:1070D0002901A89508958091C00087FFFCCF809179
:1070E000C00084FD01C0A8958091C60008959091CC
:1070F000C00095FFFCCF8093C6000895ECDF80327E
:1071000039F088E18093600088E080936000FFCFD1
:1071100084E1EDCFCF93C82FDEDFC150E9F7CF91E7
:10712000EDCF20E52CBD2A982FE02EBD0DB407FE33
:10713000FDCF292F33272EBD0DB407FEFDCF8EBD09
:107140000DB407FEFDCF1EBC0DB407FEFDCF2A9A7D
:107150008EB51CBC08950F931F93CF93DF938C01C2
:10716000D62FDFDFC82F6D2FC8010196DADF2C2F55
:1071700030E0322F2227A901482BCA01DF91CF919D
:107180001F910F91089520E52CBD2A9820EF2EBD68
:107190000DB407FEFDCF292F33272EBD0DB407FEFA
:1071A000FDCF8EBD0DB407FEFDCF4EBD0DB407FE65
:1071B000FDCF2A9A1CBC08950F931F93CF93DF93A2
:1071C000EC018B01472F55276CE6CE01DCDF402F09
:1071D0006CE6CE010196DF91CF911F910F91D3CF35
:1071E000CF93DF93EC0140E16CE681E097E0CBDFE9
:1071F00068E681E097E095DF8111FACF4FEF6CE60A
:1072000082E097E0C0DF42E06CE680E097E0BBDF21
:10721000BE0184E097E0D0DF41E06CE681E097E0DA
:10722000B2DF68E681E097E07CDF8111FACF68E6A3
:1072300083E097E076DF823229F040E16CE681E07E
:1072400097E0A1DF68E683E097E06BDF8232B1F67A
:10725000DF91CF910895CF9385E490E0C1DF87E17E
:1072600090E0DAD38B3B91F489E190E0D5D3C82F3D
:1072700088E190E0D1D32C2F30E0322F2227280F45
:10728000311D309328012093270106C089E797EB31
:107290009093280180932701CF910895AF92BF92D8
:1072A000CF92DF92EF92FF920F931F93CF93DF93D2
:1072B000CDB7DEB7CD50D240DEBFCDBF68E688E2A5
:1072C00097E049DF009711F480E098E79E012F5F77
:1072D0003F4F79015E0133EFA31A3DEFB30A8701F7
:1072E000A016B10691F06C014FEFC41AD40A60E009
:1072F00018DFF80181938F01C114F0E8DF0619F45B
:10730000C12C98E7D92EC601EBCFBC0188E297E0EB
:1073100053DF40E46CE681E097E035DF68E681E02A
:1073200097E0FFDE8111FACF0CE017E0F701419101
:107330007F016CE6C80127DF0F5F1F4F0231F7E0C6
:107340001F07A1F78F8190E0982F882728857C015F
:10735000E20EF11C298530E0322F22278A85280F82
:10736000311D0B8510E0102F00278C85080F111D93
:107370002330310579F409331105B8F580912501E1
:10738000909126010817190780F10196801791073F
:1073900060F126C045E0E41642E0F40630F5243002
:1073A0003105D4F42130310539F122303105E9F4C9
:1073B00088DE6FEF82E090E037D3809127019091D3
:1073C00028010EDF1092260110922501109224014F
:1073D0001092230122E093C0263031056CF005C0E5
:1073E000F5E0EF16F2E0FF0648F08091270190915A
:1073F0002801F6DE21E083C020E081C062DEC70103
:107400000497109324010093230101501109102FB8
:107410000027110F9C01200F311F2130304708F049
:107420006BC08115F2E09F0710F424E001C022E058
:10743000AC014F775527452B11F00196F9CF011577
:10744000110599F4FE013E96AE014E5B5F4FDF01E0
:1074500011973C913C3009F051C03081343909F02A
:107460004DC03496E417F50791F7DE011E9660E0F3
:1074700070E031E043E0F42E55E0E52EE1E1DE2E50
:107480006817790740F5FD0131974081EC9150E094
:107490005E2BF8010A0130935700E89511246E5FC6
:1074A0007F4FAB014F775527452B89F4EE57F109F4
:1074B000F0925700E89507B600FCFDCFE092570028
:1074C000E89507B600FCFDCFD0925700E8951296DC
:1074D0000E5F1F4FD5CF243091F46EEE82E090E026
:1074E000C35FDD4F2883CD50D2409ED2C35FDD4FB6
:1074F0002881CD50D24003C023E001C025E0822F77
:10750000C35FDD4FDEBFCDBFDF91CF911F910F91E4
:10751000FF90EF90DF90CF90BF90AF9008952F92A3
:107520003F924F925F926F927F928F929F92AF9213
:10753000BF92CF92DF92EF92FF920F931F93CF9360
:10754000DF93CDB7DEB7C150D140DEBFCDBF14BE93
:107550000FB6F894A89580916000886180936000D0
:10756000109260000FBE99E288E10FB6F894A895DA
:10757000809360000FBE909360002FEF83EC99E042
:10758000215080409040E1F700C00000112485E0C8
:107590008093810080E090E03FD2882321F060E07A
:1075A00080E090E041D281E090E036D2843021F05A
:1075B00064E081E090E038D282E08093C00088E10E
:1075C0008093C10086E08093C20080E18093C40074
:1075D0008CE385B98CE284B95C9A549A299A219AF1
:1075E00081E08DBD83E090E017D2853539F050E021
:1075F000E52E51E0F52E00E010E016C084E090E0AA
:107600000BD28A3AA1F741E0E42E41E0F42E05E0E6
:1076100010E0C80101D2F70181937F010F5F1F4F76
:1076200007311105B1F7E3CFF70141917F0160E028
:10763000C801A9DD0F5F1F4F0C311105A9F70BDE43
:107640001092220110922101DD24D3948E010F5F4C
:107650001F4F4E01F1E88F0E911C23E0C22EA12C8A
:10766000B12C32E0332E8091220181119FC068E657
:1076700086E297E070DD892B09F498C0D092210151
:1076800068E682E097E04DDD82FF0FC044E06CE6E3
:1076900082E097E078DD2FEF87E893E1215080408A
:1076A0009040E1F700C00000EBCFF8DD282E60E04D
:1076B00084E297E050DD985A7C01E2E02E1629F131
:1076C000E21520F0F1E02F1681F006C023E022162B
:1076D000A1F084E0281641F14AE050E06FE770E73E
:1076E000C80191D12AE0280146C04CE050E062E791
:1076F00070E7C80188D12CE0F6CF49E050E068E699
:1077000070E7C80180D129E0EECF809123019091EC
:10771000240120912501309126012817390720F4F2
:107720009093260180932501198294E09A83809199
:107730002301909124019B838C8324E0D4CFF20118
:1077400041912F013701FFEF6F1A7F0A64E7C701EC
:10775000CF5FDE4F2883C150D14015DDCF5FDE4FB4
:107760002881C150D140611480E6780619F4612C5B
:1077700098E5792E7301215010F7B701785584E20E
:1077800097E01ADD40E26CE681E097E0FCDC68E619
:1077900081E097E0C6DC8111FACF94E0291206C09F
:1077A00040E16CE681E097E0EEDC06C180912101CA
:1077B0008111C4C08091C00087FFC0C082DCD0921C
:1077C000220189DC8134B9F486DCCF5FDE4F888307
:1077D000C150D14093DCCF5FDE4F8881C150D14092
:1077E000823811F484E003C0813819F480E07FDC32
:1077F000A3C083E0FCCF823411F484E103C085345C
:1078000019F484E087DC98C0853569F464DCF82ECF
:1078100062DC2F2D30E0382B220F331F30931E01F6
:1078200020931D0188C0863519F484E073DCDECF17
:10783000843609F051C04FDC4EDC80931C014BDCD8
:10784000E0901D01F0901E01E114E0E7FE0620F437
:10785000F701C0925700E89538013DDCF3018193B0
:107860003F0180911C01815080931C018111F5CF53
:10787000E114F0E7FF0620F0F701C0925700E89509
:107880003DDC07B600FCFDCF8981D8019701201BA4
:10789000310BBD01620F731F1296AD0141505109AA
:1078A000FA01408190E0942BFB010C01D09257002B
:1078B000E8951124A815B90511F08C91EACF25E0BF
:1078C000F70120935700E89507B600FCFDCF81E152
:1078D00080935700E89530C08437D1F4FCDBFBDBA4
:1078E00080931C01F8DB0ADCE0911D01F0911E0180
:1078F000CF01019690931E0180931D018491F7DBC7
:1079000080911C01815080931C018111EDCF14C026
:10791000853739F4F3DB8EE1EADB85E9E8DB8FE0DC
:1079200066CF813541F4EADB6EEE82E090E07CD0F8
:1079300080E1DDDB41C0E2DB80E1D9DBF50185914F
:1079400094910196C1F08091290190912A010597A7
:1079500090F082E090E060D08E3E71F18091210144
:10796000813049F4F501C0925700E89574DCA9DB39
:1079700010922101A895809184009091850092FF3A
:1079800004C025B1232525B901C0299820911F01E4
:10799000309120018217930750F4209129013091F2
:1079A0002A012F5F3F4F30932A01209329019093A2
:1079B000200180931F0157CE0FB6F894A8958091AF
:1079C0006000886180936000109260000FBEEE2717
:1079D000FF27099480E090E0CF5FDE4FDEBFCDBF90
:1079E000DF91CF911F910F91FF90EF90DF90CF909B
:1079F000BF90AF909F908F907F906F905F904F90CF
:107A00003F902F900895FB01DC0102C005900D927C
:107A100041505040D8F70895F999FECF92BD81BDED
:107A2000F89A992780B50895262FF999FECF1FBAA5
:107A300092BD81BD20BD0FB6F894FA9AF99A0FBE97
:087A400001960895F894FFCFB0
:107A480080C0A801FEFFFFFF00DEADBEEFFEEDC067
:0C7A5800A801800000000007D0805555F8
:040000030000700089
:00000001FF
