:020000023000CC
:10E0000082C000009FC000009DC000009BC00000B7
:10E0100099C0000097C0000095C0000093C00000A8
:10E0200091C000008FC000008DC000008BC00000B8
:10E0300089C0000087C0000085C0000083C00000C8
:10E0400081C000007FC000007DC000007BC00000D8
:10E0500079C0000077C0000075C0000073C00000E8
:10E0600071C000006FC000006DC000006BC00000F8
:10E0700069C0000067C0000065C0000063C0000008
:10E0800061C000005FC000005DC000005BC0000018
:10E0900059C0000057C0000055C0000053C0000028
:10E0A00051C000004FC000004DC000004BC0000038
:10E0B00049C0000047C0000045C0000043C0000048
:10E0C00041C000003FC000003DC000003BC0000058
:10E0D00039C0000037C0000035C0000033C0000068
:10E0E00031C00000090005000346756C6C000A0091
:10E0F0000500004F70636F64653F00080005000075
:10E100004572726F720011241FBECFEFD1E2DEBFE5
:10E11000CDBF01E00CBF12E0A0E0B2E0EEEFFEEEFA
:10E1200003E00BBF02C007900D92A032B107D9F7F0
:10E1300022E0A0E2B2E001C01D92AC32B207E1F7EA
:10E14000C9D4DBC65DCF1092850010928400109276
:10E150002B0210922A02A89508959091C00095FF75
:10E16000FCCF8093C600089520E52CBD2C98292F64
:10E1700033272EBD0DB407FEFDCF8EBD0DB407FEB7
:10E18000FDCF1EBC0DB407FEFDCF2C9A8EB51CBC76
:10E1900008950F931F93CF938C0168E6E5DFC82F96
:10E1A00068E6C8010196E0DF2C2F30E0322F2227ED
:10E1B000A901482BCA01CF911F910F91089520E525
:10E1C0002CBD2C98292F33272EBD0DB407FEFDCF73
:10E1D0008EBD0DB407FEFDCF4EBD0DB407FEFDCFC5
:10E1E0002C9A1CBC08950F931F93CF93DF93EC01DF
:10E1F0008B01472F55276CE6CE01E1DF402F6CE6FF
:10E20000CE010196DF91CF911F910F91D8CFCF937F
:10E21000DF93EC0140E16CE681E090E0D0DF68E65E
:10E2200081E090E0A1DF8111FACF4FEF6CE682E050
:10E2300090E0C5DF42E06CE680E090E0C0DFBE0128
:10E2400084E090E0D0DF41E06CE681E090E0B7DF71
:10E2500068E681E090E088DF8111FACF68E683E02C
:10E2600090E082DF823229F040E16CE681E090E0CC
:10E27000A6DF68E683E090E077DF8232B1F6DF91D7
:10E28000CF9108952F923F924F925F926F927F921B
:10E290008F929F92AF92BF92CF92DF92EF92FF92B6
:10E2A0000F931F93CF93DF93CDB7DEB7C452D14006
:10E2B000DEBFCDBFCC5DDE4F1882C452D140A12C51
:10E2C000212C312CC12CD12C7601412C512C320126
:10E2D00080E090E040E0473009F450C02091C00059
:10E2E00027FFFCCF2091C00024FD01C0A8955091CC
:10E2F000C600433001F120F4413071F038F014C011
:10E30000453021F1E0F0463089F1E5CF5B3119F776
:10E310002BE1A22E41E0E2CFA526CC5DDE4F588353
:10E32000C452D14042E0DACF852F90E0982F882761
:10E33000A52643E0D3CF852BA52644E0CFCF5E3082
:10E34000D9F4A526212C312C45E0C8CF91012F5FAF
:10E350003F4FE1E0F0E0EC0FFD1FE20DF31D5083B5
:10E36000A5268217930729F01901B8CFA51204C07A
:10E3700005C01C0146E0B2CF40E0B0CF4981433137
:10E3800009F4D6C058F5463009F4C5C0F8F4423057
:10E39000E9F1433009F467C0413009F093C11A82B2
:10E3A00088E08B8381E48C8386E58D8382E58E8390
:10E3B00089E48F8383E5888780E589878FE58A876D
:10E3C00082E38B8790E00BE010E081C1413109F4DA
:10E3D00057C008F097C04031C9F074C1483109F402
:10E3E0006AC048F4453109F4A3C008F41CC14631A1
:10E3F00009F419C167C14A3109F450C008F470C06A
:10E400004B3109F440C04D3119F05CC190E039C086
:10E410009D81903339F48F818823B1F08130B1F43C
:10E4200088E917C0892F807599F0903521F489E02B
:10E43000E0E0F0E005C0983559F4E3E0F0E089E071
:10E4400080935700849105C08EE103C081E001C034
:10E4500080E01A821B829C831D828E831F8290E043
:10E4600007E010E034C1EA81E059E33028F4F0E03D
:10E47000E45EFD4F808101C080E01A828B833EC044
:10E4800091E01A8222C18D81882321F0813021F40C
:10E4900088E924C08EE122C081E020C01A82E1E038
:10E4A000F0E089E08093570084918B831C8290E098
:10E4B00004E010E00CC18B81803551F48C818830F0
:10E4C00019F4E2E0F0E006C089E0E0E0F0E003C02B
:10E4D000E3E0F0E089E08093570084911A82E5CF71
:10E4E0008D81836C99E0E1E0F0E0082E9093570075
:10E4F000E89507B600FCFDCF1A821B8290E003E08E
:10E5000010E0E5C080EC8A8390E002E010E0C12CCE
:10E51000D12C7601DCC06A817B818C819D81E6D41F
:10E520002B013C01440C551C661C771C1A82CCC084
:10E530008A819B81982789279827433109F043C016
:10E54000C114F0ECDF06F3E0EF06F10478F413E019
:10E55000812EF601E0925B0080925700E89507B6A5
:10E5600000FCFDCF1FEFD11AE10AF10A2B85B301A0
:10E57000A201DE011B961296FD013197E08130E089
:10E580003E2B882483940901FA0160935B008092FA
:10E590005700E89511244E5F5F4F6F4F7F4F0297F2
:10E5A00011F02C91E8CFB5E09B2EF20160925B0058
:10E5B00090925700E89507B600FCFDCF81E180936B
:10E5C0005700E8952CC0FE013B969C01B301A201C7
:10E5D00041BD852E962EA72EBB24C25EDE4F8882BB
:10E5E0009982AA82BB82CE51D14082BC4F5F5F4FDD
:10E5F0006F4F7F4FA191A0BDFA9AF99AF999FECF7A
:10E600002150310929F70197A0E0B0E00196A11D42
:10E61000B11DAC01BD01440D551D661D771D1A824B
:10E620002A013B0151C02A813B813227232732270F
:10E6300089010D5F1F4F1A824431A1F4DE01139648
:10E640006BBEF201879196918C931296FD013197E2
:10E65000908362E0460E511C611C711C22503109EE
:10E6600079F72DC0FE013396A901D301C20181BD06
:10E67000892E9A2EAB2EBB24C25EDE4F88829982F1
:10E68000AA82BB82CE51D14082BC0196A11DB11D90
:10E69000F89A60B561934150510949F7C901019752
:10E6A000A0E0B0E00196A11DB11D480E591E6A1EE2
:10E6B0007B1EA3E0B0E0AC0FBD1FA20FB31F1C92E6
:10E6C00090E005C080EC8A8390E002E010E08BE1EE
:10E6D000CD5DDE4F9883C352D1403FDDCC5DDE4F30
:10E6E0008881C452D14039DD812E9924882D35DDB1
:10E6F000802F33DD85E1CC5DDE4FA880C452D14050
:10E70000A826A0268EE029DDA8249E012F5F3F4F7A
:10E710004901020F131FCD5DDE4F9881C352D140D6
:10E7200008151905B1F0F40121914F01822FCE5D3A
:10E73000DE4F2883C252D140CD5DDE4F9883C35255
:10E74000D1400BDDCE5DDE4F2881C252D140A226E2
:10E75000E2CF8A2DCD5DDE4F9883C352D140FDDCE0
:10E76000CC5DDE4F1881C452D1401F5FCC5DDE4FBF
:10E770001883C452D140CD5DDE4F9881C352D14041
:10E78000992309F4A5CD000081E180935700E89515
:10E790006EEE82E090E09CD380E0CC5DDE4FDEBF89
:10E7A000CDBFDF91CF911F910F91FF90EF90DF9040
:10E7B000CF90BF90AF909F908F907F906F905F9021
:10E7C0004F903F902F9008952F923F924F925F92DB
:10E7D0006F927F928F929F92AF92BF92CF92DF9271
:10E7E000EF92FF920F931F93CF93DF93CDB7DEB7D6
:10E7F000CC50D240DEBFCDBF88E290E0CADC8C01B5
:10E80000CE0101967C015E0193EFA91A9DEFB90A32
:10E81000670148018E189F08C4018C0D9D1DAC1422
:10E82000BD0431F068E7A0DCF60181936F01F4CFFD
:10E83000B801645F7D4F88E290E0D5DC40E46CE68F
:10E8400081E090E0BCDC68E681E090E08DDC811145
:10E85000FACF0CE010E0F70141917F016CE6C801AE
:10E86000AEDC0F5F1F4F02311105A9F72F8130E099
:10E87000322F222788857901E80EF11C898590E0E6
:10E88000982F88272A85820F911D0B8510E0102F65
:10E8900000272C85020F111D8330910581F4093F5B
:10E8A000F1E01F07A8F58091260290912702081732
:10E8B000190770F101968017910750F124C025E0E7
:10E8C000E21622E0F20620F584309105CCF4813086
:10E8D000910529F10297E1F436DC6FEF82E090E0D8
:10E8E000F7D2809128029091290291DC10922702A0
:10E8F00010922602109225021092240212E0A5C066
:10E9000006976CF005C025E0E21622E0F20648F01A
:10E9100080912802909129027ADC11E096C010E0E3
:10E9200094C011DC97012450310910932502009303
:10E93000240201501109C801880F892F881F990BE3
:10E940009195A0E0B0E0BC0155274427C801A0E0A4
:10E95000B0E0E9E0880F991FAA1FBB1FEA95D1F725
:10E96000AA27BB27842B952BA62BB72BAC01BD0167
:10E97000420F531F611D711D4130504F634071059F
:10E9800008F062C02115F2E03F0710F414E001C066
:10E9900012E0222319F02F5F3F4FFBCF7E014EE0A4
:10E9A000E40EF11C40E050E001E04C015D0161E04B
:10E9B000961AA108B10863E0D62E75E0C72EE1E1F2
:10E9C0003E2E4217530708F038C02C013D01440E7B
:10E9D000551E611C711CF70131976081F701208081
:10E9E00070E072290B01F20160925B000093570006
:10E9F000E89511244E5F5F4F41111BC02401350182
:10EA0000440E551E611C711CF20160925B00D09295
:10EA10005700E89507B600FCFDCFF20160925B005D
:10EA2000C0925700E89507B600FCFDCF3092570022
:10EA3000E895F2E0EF0EF11CC4CF143031F46EEE25
:10EA400082E090E045D201C013E0812FC45FDD4F2A
:10EA5000DEBFCDBFDF91CF911F910F91FF90EF905F
:10EA6000DF90CF90BF90AF909F908F907F906F90EE
:10EA70005F904F903F902F900895CF9385E490E062
:10EA8000C6DB87E190E01CD28B3B91F489E190E0FA
:10EA900017D2C82F88E190E013D22C2F30E0322F0C
:10EAA0002227280F311D309329022093280206C007
:10EAB00089E797EB9093290280932802CF910895DC
:10EAC0006BBFFA01DC0102C007900D92215030406B
:10EAD000D8F708952F923F924F925F926F927F9254
:10EAE0008F929F92AF92BF92CF92DF92EF92FF925E
:10EAF0000F931F93CF93DF93CDB7DEB7C157D109E3
:10EB0000DEBFCDBF14BE0FB6F894A895809160000B
:10EB1000886180936000109260000FBE99E288E1E6
:10EB20000FB6F894A895809360000FBE9093600094
:10EB30002FEF33EC49E0215030404040E1F700C076
:10EB40000000112485E08093810080E090E0B8D13E
:10EB5000882321F060E080E090E0BAD181E090E08D
:10EB6000AFD1843021F064E081E090E0B1D182E067
:10EB70008093C00088E18093C10086E08093C2004A
:10EB800080E18093C4008FE085B987E084B92C9A36
:10EB9000249AA59A9D9A2F9A279A81E08DBD83E0A9
:10EBA00090E08ED1853539F020E0E22E22E0F22E81
:10EBB00000E010E016C084E090E082D18A3AA1F72C
:10EBC00091E0E92E92E0F92E05E010E0C80178D13D
:10EBD000F70181937F010F5F1F4F07311105B1F7D7
:10EBE000E3CFF70141917F0164E0C801E8DA0F5FEC
:10EBF0001F4F0C311105A9F710E0012F0295000FEE
:10EC0000007E045F42E0602F8EE190E0D8DA42E0BF
:10EC1000602F8FE190E0D3DA1F5F183071F72DDF9E
:10EC2000109223021092220201E09E012F5F3F4FBB
:10EC3000790184E0282E8BEF90EEA0E0B0E09C01FB
:10EC4000AD014D5F5F4FA9962CAF3DAF4EAF5FAFAB
:10EC5000A99784EE90EEA0E0B0E09C01AD014D5F7D
:10EC60005F4FAD962CAF3DAF4EAF5FAFAD978EEE21
:10EC700090EEA0E0B0E09C01AD014D5F5F4FE196EA
:10EC80002CAF3DAF4EAF5FAFE197412C512C32011D
:10EC90008091230281119BC086E290E07ADA892B71
:10ECA00009F495C00093220268E682E090E05CDA05
:10ECB00082FF0FC044E06CE682E090E080DA3FEF34
:10ECC00047E853E1315040405040E1F700C00000B8
:10ECD000EBCF7ADD182F84E290E05BDA6C01123022
:10ECE00089F118F4113089F004C01330D1F01430D8
:10ECF000C1F12AE030E0A9964CAD5DAD6EAD7FADBF
:10ED0000A997C701DDDE2AE017C02CE030E0E196CC
:10ED10004CAD5DAD6EAD7FADE197C701D1DE2CE0AE
:10ED20000BC029E030E0AD964CAD5DAD6EAD7FAD72
:10ED3000AD97C701C5DE29E05701322E46018E1876
:10ED40009F0819C0809124029091250220912602EB
:10ED5000309127022817390720F4909327028093D7
:10ED6000260219822A8280912402909125029B8397
:10ED70008C8324E0E1CFC4018A0D9B1D3A94FFEF00
:10ED80003F1661F0F50141915F0164E7E2962FAF14
:10ED9000E29715DAE2962FADE297EDCFB601620F5A
:10EDA000711D84E290E01FDA40E26CE681E090E0C1
:10EDB00006DA68E681E090E0D7D98111FACF143005
:10EDC00031F440E16CE681E090E0F9D952C08091E5
:10EDD0002202882339F06BBEF20187919691019649
:10EDE00061F426C08091C00087FFF5CFACD90093B5
:10EDF000230248DA8111EFCF3CC080912A02909122
:10EE00002B020597A8F082E090E05AD08E3E89F15F
:10EE100080912202813061F483E0F20160925B0014
:10EE200080935700E89529DE8ED910922202A8958A
:10EE3000809184009091850092FF04C025B12058F4
:10EE400025B901C02F98209120023091210282170C
:10EE5000930750F420912A0230912B022F5F3F4FED
:10EE600030932B0220932A02909321028093200258
:10EE70000FCF0FB6F894A8958091600088618093B9
:10EE80006000109260000FBEEE27FF27099480E01B
:10EE900090E0CF58DF4FDEBFCDBFDF91CF911F9104
:10EEA0000F91FF90EF90DF90CF90BF90AF909F9029
:10EEB0008F907F906F905F904F903F902F9008952C
:10EEC000F999FECF92BD81BDF89A992780B5089532
:10EED000262FF999FECF1FBA92BD81BD20BD0FB676
:10EEE000F894FA9AF99A0FBE019608956927962721
:0EEEF00069277827872778270895F894FFCFA1
:10EEFE0080C0A801FEFFFFFF00DEADBEEFFEEDC03D
:10EF0E00A8018000000000000007D0080F020A00D0
:040000033000E000E9
:00000001FF
