:1070000056C100006FC100006DC100006BC10000DF
:1070100069C1000067C1000065C1000063C10000D4
:1070200061C100005FC100005DC100005BC10000E4
:1070300059C1000057C1000055C1000053C10000F4
:1070400051C100004FC100004DC100004BC1000004
:1070500049C1000047C1000045C1000043C1000014
:1070600041C100003FC100004E6574776F726B2014
:10707000696E697420646F6E650009202020204DC0
:1070800041433A200009476174657761793A2000ED
:1070900009205375626E65743A2000094164647278
:1070A0006573733A20004275696C742D696E2073A4
:1070B000657474696E677300454550524F4D207377
:1070C000657474696E677300204E65743A200052CF
:1070D0006573706F6E73652073656E740053656EB3
:1070E000742046696E616C2041434B0053656E7499
:1070F0002041434B00090005000346756C6C000AF3
:10710000000500004F70636F64653F0008000500D4
:10711000004572726F7200537461727420757365EA
:1071200072206170700041726961646E6520666FE3
:10713000722041726475696E6F20556E6F2C2056F7
:10714000657273696F6E20302E35004D61696E3A3D
:107150002000496E697420736F636B657420746FCF
:1071600020706F72742000496E76616C6964206FC4
:1071700070636F646520004572726F720041636BCB
:107180006E6F776C6564676500466C617368696EE5
:107190006720636F6D706C657465005061636B652B
:1071A00074206C656E6774682061646A75737465B9
:1071B0006420746F200057726974696E672064617F
:1071C00074612066726F6D206164647265737320F0
:1071D00000466C6173682069732066756C6C0044AE
:1071E00061746120626C6F636B004368616E6765F8
:1071F0006420746F20706F72742000577269746518
:1072000020726571756573740052656164207265E2
:1072100071756573740020616E642064617461200F
:107220006C656E67746820002077697468206F70E1
:10723000636F646520005468697320697320626C11
:107240006F636B20005365742075702072657475D0
:10725000726E2061646472657373004F7665726646
:107260006C6F770050726F63657373696E6720701F
:1072700061636B6574206F662073697A652000090D
:1072800044617461506F72743A2000544654502027
:1072900073657276657220696E697420646F6E65BD
:1072A00000546674703A20000D0A003078001124F2
:1072B0001FBECFEFD8E0DEBFCDBF11E0A0E0B1E050
:1072C000E8E8FFE702C005900D92AC31B107D9F7AD
:1072D00021E0ACE1B1E001C01D92AB32B207E1F7B1
:1072E00025D350C68DCE1092850010928400109246
:1072F0002A0110922901A89508958091C00087FF66
:10730000FCCF8091C00084FD01C0A8958091C6008B
:1073100008959091C00095FFFCCF8093C60008951A
:10732000ECDF803239F088E18093600088E0809360
:107330006000FFCF84E1EDCFCF93C82FDEDFC150D7
:10734000E9F7CF91EDCF0F931F93CF93DF938C018C
:10735000D0E0F801ED0FF11DC491CC2311F08C2F7A
:10736000D8DFDF5FC111F5CFDF91CF911F910F9172
:107370000895CF92DF92EF92FF92CF936B017C0141
:10738000C42F8BEA92E7DFDFCC23D1F08C2F90E083
:107390000197880F991F880F991FA701960104C0B4
:1073A00056954795379527958A95D2F7DA01C90101
:1073B0008F708A3008F0895F805DABDFC150E4CF09
:1073C000CF91FF90EF90DF90CF9008950F931F9390
:1073D000CF93DF938C01EB0188EA92E7B4DFC80119
:1073E000B2DFCE01DF91CF911F910F91ACCF20E59D
:1073F0002CBD2A98292F33272EBD0DB407FEFDCFB3
:107400008EBD0DB407FEFDCF1EBC0DB407FEFDCF33
:1074100081E08EBD0DB407FEFDCF1EBC0DB407FE8E
:10742000FDCF2A9A8EB51CBC08950F931F93CF935E
:10743000DF938C01D62FDBDFC82F6D2FC80101969B
:10744000D6DF2C2F30E0322F2227A901482BCA018A
:10745000DF91CF911F910F91089520E52CBD2A98BF
:10746000292F33272EBD0DB407FEFDCF8EBD0DB4E1
:1074700007FEFDCF80E88EBD0DB407FEFDCF81E095
:107480008EBD0DB407FEFDCF4EBD0DB407FEFDCF82
:107490002A9A1CBC08950F931F93CF93DF93EC019E
:1074A0008B01472F55276CE6CE01D7DF402F6CE6C6
:1074B000CE010196DF91CF911F910F91CECFCF9347
:1074C000DF93EC0162E571E781EA92E77FDFBE01BD
:1074D00080E090E044E04DDF40E16CE681E093E441
:1074E000BCDF68E681E093E482DF8111FACF4FEFE1
:1074F0006CE682E093E4B1DF42E06CE680E093E486
:10750000ACDFBE0184E093E4C6DF41E06CE681E0DD
:1075100093E4A3DF68E681E093E469DF8111FACFA9
:1075200068E683E093E463DF823229F040E16CE6B1
:1075300081E093E492DF68E683E093E458DF8232EF
:10754000B1F6DF91CF910895CF9385E490E0B7DF56
:1075500087E190E001D58B3B91F489E190E0FCD488
:10756000C82F88E190E0F8D42C2F30E0322F22276A
:10757000280F311D309328012093270106C089E789
:1075800097EB90932801809327016BE872E781EADB
:1075900092E71CDF6FE772E781EA92E717DF6091FD
:1075A00027017091280180E090E044E0CF91E1CE86
:1075B000AF92BF92CF92DF92EF92FF920F931F9301
:1075C000CF93DF93CDB7DEB7CC50D240DEBFCDBF77
:1075D0008C0164E672E781EA92E7F8DEB80180E0A8
:1075E00090E044E0C6DE0115184028F06BE572E734
:1075F00081EA92E7EBDE68E688E293E416DF009723
:1076000011F480E098EDFE0131967F015E01F3EF09
:10761000AF1AFDEFBF0A8701A016B10691F06C0109
:107620002FEFC21AD20A60E0E2DEF80181938F01E7
:10763000C114F0EEDF0619F4C12C48EDD42EC601BA
:10764000EBCFBC0188E293E426DF40E46CE681E006
:1076500093E403DF68E681E093E4C9DE8111FACFA9
:107660000CE013E4F70141917F016CE6C801F5DEFF
:107670000F5F1F4F0231F3E41F07A1F765E472E7C4
:1076800081EA92E7A3DECF80D12CDC2CCC24888544
:10769000C80ED11C698570E0762F66278A858B011C
:1076A000080F111DEB85F0E0FE2FEE278C855F01A2
:1076B000A80EB11C66E372E781EA92E787DEB501A6
:1076C00080E090E044E055DE88E292E73CDEB801DD
:1076D00080E090E044E04DDE86E192E734DE760122
:1076E00024E0E21AF108B70180E090E044E041DED6
:1076F0000330110591F439E3A316B10460F48091CD
:10770000250190912601A816B90628F001968A1540
:107710009B0508F047C000E010E085E0C81682E055
:10772000D80608F044C00230110589F038F4013061
:10773000110509F03EC069E072E72FC00430110561
:1077400051F105301105A9F567E771E726C0CBDDDA
:107750006BEF71E781EA92E739DE6FEF82E090E04C
:1077600003D40091270110912801C801A8DE6AEE18
:1077700071E781EA92E72ADEB80180E090E044E018
:10778000F8DD10922601109225011092240110922A
:10779000230112E0BBC06DE771E781EA92E716DED4
:1077A00010E0B4C025E0C21622E0D20698F000E056
:1077B00010E067E671E781EA92E708DEB80180E051
:1077C00090E044E0D6DD809127019091280177DE9A
:1077D00011E09CC088DD6FED71E781EA92E7F6DD8C
:1077E000B0922401A0922301E1E0AE1AB108BA2CB4
:1077F000AA24BB0CC7018A0D9B1D8130904738F02D
:1078000061ED71E781EA92E7E1DD13E07FC066EBAD
:1078100071E781EA92E7DADDC501A0E0B0E046E079
:10782000BC01CD01A6DDE11422E0F20610F414E063
:1078300001C012E0C7018F779927892B21F03FEF14
:10784000E31AF30AF7CF6BE971E781EA92E7BEDD4D
:10785000C701A0E0B0E044E0BC01CD018ADDA11485
:10786000B10499F4DE011E96CE018E5B9F4FFD019F
:10787000319720812C3009F048C02C91243909F02F
:1078800044C01496A817B90791F7DE011E9620E0B0
:1078900030E041E053E065E071E12E153F0548F529
:1078A000FD0131978081EC9190E09E2BF5010C0158
:1078B00040935700E89511242E5F3F4FC9018F7701
:1078C0009927892B89F4EE57F10950935700E895D1
:1078D00007B600FCFDCF60935700E89507B600FCA3
:1078E000FDCF70935700E8951296F2E0AF0EB11CF1
:1078F000D4CF143059F469E871E781EA92E766DD84
:107900006EEE82E090E030D301C015E0812FC45FBD
:10791000DD4FDEBFCDBFDF91CF911F910F91FF9063
:10792000EF90DF90CF90BF90AF9008952F923F924D
:107930004F925F926F927F928F929F92AF92BF927F
:10794000CF92DF92EF92FF920F931F93CF93DF932B
:10795000CDB7DEB7C150D140DEBFCDBF14BE0FB62C
:10796000F894A895809160008861809360001092DF
:1079700060000FBE99E288E10FB6F894A895809355
:1079800060000FBE909360002FEF83EC99E02150D0
:1079900080409040E1F700C00000112485E0809312
:1079A000810080E090E0D8D2882321F060E080E080
:1079B00090E0DAD281E090E0CFD2843021F064E030
:1079C00081E090E0D1D282E08093C00088E1809392
:1079D000C10086E08093C20080E18093C40066E22B
:1079E00071E78BE491E7F2DC8CE385B98CE284B932
:1079F0005C9A549A81E08DBD83E090E0ADD28535EC
:107A0000C1F484E090E0A8D28A3A99F4F1E0EF2E34
:107A1000F1E0FF2E05E010E0C8019ED2F70181934E
:107A20007F010F5F1F4F07311105B1F768EB70E75A
:107A300002C066EA70E788EC90E7C8DC6BE970E7A3
:107A400088EC90E7C3DCEFE0EE2EE1E0FE2E1FE0D5
:107A5000F70161917F0170E080E090E042E089DC15
:107A6000123111F08EE255DC1F5F133189F760E9A6
:107A700070E788EC90E7AADC75E0E72E71E0F72E5E
:107A800015E0F70161917F0170E080E090E042E055
:107A900070DC183011F08EE23CDC1F5F193089F782
:107AA00065E870E788EC90E791DC61E0E62E61E044
:107AB000F62E01E0F70161917F0170E080E090E037
:107AC00042E057DC043011F08EE223DC0F5F05301A
:107AD00089F76AE770E788EC90E778DC59E0E52EF3
:107AE00051E0F52EF70161917F0170E080E090E0B8
:107AF00042E03FDC1E3011F08EE20BDC1F5F1F30D6
:107B000089F740E0E42E41E0F42E00E010E0F701B8
:107B100041917F0160E0C801A0DC0F5F1F4F0A3177
:107B20001105A9F70FE110E442E060E0C80195DC1F
:107B300042E060E0C801019790DC13950F31F8E452
:107B40001F0791F768E670E788EC90E73FDCFCDC04
:107B50001092220110922101DD24D3948E010F5F37
:107B60001F4F4E0121E8820E911C21E1322E33E09D
:107B7000C32EA12CB12C809122018111AEC068E6E8
:107B800086E293E452DC892B09F4A7C0D09221014C
:107B900068E682E093E42BDC82FF0FC044E06CE6F1
:107BA00082E093E45ADC8FEF97E8E3E18150904064
:107BB000E040E1F700C00000EBCF68E686E293E426
:107BC00034DCF6DC282E60E084E293E42EDC985668
:107BD0007C01F2E02F1631F1F21520F021E022169F
:107BE00089F007C083E02816A9F094E0291609F46B
:107BF0003CC14AE050E06CE071E7C801A4D12AE042
:107C000028014BC04CE050E06FEF70E7C8019BD1FA
:107C10002CE0F6CF49E050E065EF70E7C80193D162
:107C200029E0EECF8091230190912401209125013C
:107C3000309126012817390720F49093260180936C
:107C400025016CEE70E781EA92E7C0DB1982E4E07F
:107C5000EA8380912301909124019B838C8324E00B
:107C6000CFCFF20141912F013701FFEF6F1A7F0A49
:107C700064E7C701CF5FDE4F2883C150D140EDDB01
:107C8000CF5FDE4F2881C150D140611480EA780671
:107C900019F4612C98E9792E7301215010F7B7017E
:107CA000785984E293E4F7DB40E26CE681E093E408
:107CB000D4DB68E681E093E49ADB8111FACF6FECC4
:107CC00070E781EA92E782DB94E0291206C040E186
:107CD0006CE681E093E4C1DB0AC18091210181114E
:107CE000C7C08091C00087FFC3C0FDDAD0922201D7
:107CF00004DB8134B9F401DBCF5FDE4F8883C150F0
:107D0000D1400EDBCF5FDE4F8881C150D140823839
:107D100011F484E003C0813819F480E0FADAA2C0DB
:107D200083E0FCCF823411F484E103C0853419F47C
:107D300084E002DB97C0853569F4DFDAF82EDDDAFE
:107D40002F2D30E0382B220F331F30931E0120934C
:107D50001D0187C0863519F484E0EEDADECF843663
:107D600009F050C0CADAC9DA80931C01C6DAE09083
:107D70001D01F0901E01E114E0E7FE0620F4F7017A
:107D8000C0925700E8953801B8DAF30181933F01BA
:107D900080911C01815080931C018111F5CFE11469
:107DA000F0E7FF0620F0F701C0925700E895B8DA37
:107DB00007B600FCFDCF8981D8019701201B310B4C
:107DC000BD01620F731F1296AD0141505109FA01B6
:107DD000408190E0942BFB010C01D0925700E89574
:107DE0001124A815B90511F08C91EACF25E0F7010F
:107DF00020935700E89507B600FCFDCF309257005E
:107E0000E89530C08437D1F478DA77DA80931C01B2
:107E100074DA86DAE0911D01F0911E01CF0101961E
:107E200090931E0180931D01849173DA80911C014F
:107E3000815080931C018111EDCF14C0853739F436
:107E40006FDA8EE166DA85E964DA8FE067CF813533
:107E500041F466DA6EEE82E090E086D080E159DA95
:107E600046C05EDA80E155DA03C06DED70E7EBCE17
:107E7000F501859194910196C1F08091290190912D
:107E80002A01059790F082E090E066D08E3E79F16D
:107E900080912101813049F4F501C0925700E895A5
:107EA00053DB21DA10922101A895809184009091F2
:107EB000850092FF05C035B120E2232725B901C016
:107EC0002D9820911F01309120018217930750F4C3
:107ED0002091290130912A012F5F3F4F30932A01D1
:107EE000209329019093200180931F0144CE0FB667
:107EF000F894A8958091600088618093600010924A
:107F000060000FBE67E171E78BE491E75FDAEE276F
:107F1000FF27099480E090E0CF5FDE4FDEBFCDBF4A
:107F2000DF91CF911F910F91FF90EF90DF90CF9055
:107F3000BF90AF909F908F907F906F905F904F9089
:107F40003F902F900895FB01DC0102C005900D9237
:107F500041505040D8F70895F999FECF92BD81BDA8
:107F6000F89A992780B50895262FF999FECF1FBA60
:107F700092BD81BD20BD0FB6F894FA9AF99A0FBE52
:087F800001960895F894FFCF6B
:107F880080C0A801FEFFFFFF00DEADBEEFFEEDC022
:0C7F9800A801800000000007D0080000D5
:040000030000700089
:00000001FF
