:020000021000EC
:10E0000055C0000014C3000012C3000010C300007C
:10E010000EC300000CC300000AC3000008C30000C8
:10E0200006C3000004C3000002C3000000C30000D8
:10E03000FEC20000FCC20000FAC20000F8C20000EC
:10E04000F6C20000F4C20000F2C20000F0C20000FC
:10E05000EEC20000ECC20000EAC20000E8C200000C
:10E06000E6C20000E4C20000E2C20000E0C200001C
:10E07000DEC20000DCC20000DAC20000D8C200002C
:10E08000D6C20000D4C20000D2C2000000050003C6
:10E0900046756C6C00000500044F70636F64653F4B
:10E0A00000000500004572726F72000011241FBE4F
:10E0B000CFEFD0E4DEBFCDBF11E0A0E0B1E0E4E2FD
:10E0C000FBEE01E00BBF02C007900D92AC31B1072F
:10E0D000D9F721E0ACE1B1E001C01D92AB32B2074B
:10E0E000E1F701D01DC5CDB7DEB7C750D140DEBFC7
:10E0F000CDBF14BE0FB6F894A895809160008861DA
:10E1000080936000109260000FBE99E288E10FB624
:10E11000F894A895809360000FBE909360002FEF55
:10E1200033EC49E0215030404040E1F700C00000AE
:10E13000112484E08093810080E090E0DBD4882388
:10E1400021F060E080E090E0DDD481E090E0D2D486
:10E15000843021F064E081E090E0D4D482E08093C8
:10E16000C00088E18093C10086E08093C20080E116
:10E170008093C40080EF85B980EB84B9479A3F9AB9
:10E1800081E08DBD83E090E0B5D4853539F050E075
:10E19000E52E51E0F52E00E010E016C084E090E09E
:10E1A000A9D48A3AA1F741E0E42E41E0F42E05E03B
:10E1B00010E0C8019FD4F70181937F010F5F1F4FCB
:10E1C00007311105B1F7E3CFF70141917F0160E01D
:10E1D000C80194D20F5F1F4F0A311105A9F70FE153
:10E1E00010E442E060E0C80189D242E060E0C8018A
:10E1F000019784D213950F31F8E41F0791F7EBD202
:10E20000109222011092210181EA90EE4C01A12C82
:10E21000B12C2FEFA21AB20A8CE890EE2C01612CDF
:10E22000712C3FEF631A730A85E990EEA0E0B0E02D
:10E230009C01AD014F5F5F4FCD5FDE4F2883398377
:10E240004A835B83C350D140AE014F5F5E4FCF5FC7
:10E25000DE4F59834883C150D14080912201811102
:10E260009BC068E686E293E431D2892B09F494C01E
:10E2700081E08093210168E682E093E409D282FF85
:10E280000FC044E06CE682E093E438D25FEF87E8A9
:10E2900093E1515080409040E1F700C00000EBCF87
:10E2A000BDD2182F60E084E293E410D298567C012E
:10E2B000123061F118F4113089F004C01330E9F024
:10E2C000143099F12AE030E0B501A401CE010196A5
:10E2D00007D40AE0FE0131961F0144C02CE030E073
:10E2E000CD5FDE4F488159816A817B81C350D14027
:10E2F000CE010196F5D30CE0EDCF29E030E0B3017B
:10E30000A201CE010196ECD309E0E4CF8091230174
:10E310009091240120912501309126012817390779
:10E3200020F49093260180932501198284E08A834A
:10E3300080912301909124019B838C8304E0CACFB8
:10E34000F10141911F016701FFEFCF1ADF0A64E776
:10E35000C701D4D1C11420EAD20619F4C12C38E97E
:10E36000D32E7601015060F7B701785984E293E427
:10E37000E3D140E26CE681E093E4C0D168E681E05D
:10E3800093E486D18111FACF143031F440E16CE688
:10E3900081E093E4B3D136C1809121018111EAC0BB
:10E3A0008091C00087FFE6C043D181E080932201C5
:10E3B00049D18134B9F446D1C95FDE4F8883C75053
:10E3C000D14053D1C95FDE4F8881C750D1408238D8
:10E3D00011F484E003C0813819F480E03FD1C8C053
:10E3E00083E0FCCF823411F484E103C0853419F456
:10E3F00084E047D1BDC08535A1F424D1182F22D1A6
:10E40000212F30E0A901582BCA01292F221F2227D2
:10E41000221F2BBF880F991F90931E0180931D010F
:10E42000A6C0863519F484E02CD1D7CF843609F004
:10E430006EC008D107D180931C0104D1E0901D016A
:10E44000F0901E01E11450EEF50650F4C701A0E073
:10E45000B0E023E0FC01A0935B0020935700E89517
:10E460008E010F5F1F4FEED0F80181938F018091D5
:10E470001C01815080931C018111F5CFE114F0EE55
:10E48000FF0650F0C701A0E0B0E023E0FC01A0933C
:10E490005B0020935700E895E8D007B600FCFDCF5D
:10E4A0008981DE01119697012A1B3B0B11E0AD011A
:10E4B000420F531F129660E070E0FD013197E0813A
:10E4C00090E09E2B0C01FA0160935B0010935700C3
:10E4D000E8951124CF5FDE4F48815981C150D1406A
:10E4E000A417B50711F08C91E2CFC701A0E0B0E00E
:10E4F00025E0FC01A0935B0020935700E89507B648
:10E5000000FCFDCF81E180935700E89531C084374E
:10E51000D9F498D097D080931C0194D0A6D00091C4
:10E520001D0110911E01F801869198D00F5F1F4FB9
:10E5300010931E0100931D0180911C018150809356
:10E540001C018111ECCF14C0853739F48ED08EE1D7
:10E5500085D087E983D085E041CF813541F485D0EE
:10E560006EEE82E090E0CED280E178D04BC07DD0DC
:10E5700080E174D080E090E0DC01ABBFFC018791CA
:10E5800096910196E9F08091290190912A010A97CC
:10E59000B8F082E090E0AED28E3EA1F180912101F0
:10E5A000813071F440E050E0BA0183E0FA016093F9
:10E5B0005B0080935700E8950ED13AD0109221016C
:10E5C000A895809184009091850094FF04C02BB1A0
:10E5D00020582BB901C05F9820911F013091200174
:10E5E0008217930750F42091290130912A012F5F5F
:10E5F0003F4F30932A01209329019093200180936B
:10E600001F012BCE0FB6F894A89580916000886109
:10E6100080936000109260000FBEEE27FF270994E0
:10E6200080E090E0C95FDE4FDEBFCDBF0895E8CC4B
:10E63000109285001092840010922A0110922901F4
:10E64000A89508958091C00087FFFCCF8091C000FD
:10E6500084FD01C0A8958091C60008959091C000E6
:10E6600095FFFCCF8093C6000895ECDF803239F02F
:10E6700088E18093600088E080936000FFCF84E1B0
:10E68000EDCFCF93C82FDEDFC150E9F7CF91EDCFAB
:10E6900020E52CBD2C98292F33272EBD0DB407FE65
:10E6A000FDCF8EBD0DB407FEFDCF1EBC0DB407FE21
:10E6B000FDCF81E08EBD0DB407FEFDCF1EBC0DB4B5
:10E6C00007FEFDCF2C9A8EB51CBC08950F931F93A7
:10E6D000CF93DF938C01D62FDBDFC82F6D2FC801BE
:10E6E0000196D6DF2C2F30E0322F2227A901482BAC
:10E6F000CA01DF91CF911F910F91089520E52CBDA4
:10E700002C98292F33272EBD0DB407FEFDCF8EBDCB
:10E710000DB407FEFDCF80E88EBD0DB407FEFDCF22
:10E7200081E08EBD0DB407FEFDCF4EBD0DB407FEDA
:10E73000FDCF2C9A1CBC08950F931F93CF93DF93AA
:10E74000EC018B01472F55276CE6CE01D7DF402F18
:10E750006CE6CE010196DF91CF911F910F91CECF44
:10E76000CF93DF93EC0140E16CE681E093E4C6DFF8
:10E7700068E681E093E48CDF8111FACF4FEF6CE61D
:10E7800082E093E4BBDF42E06CE680E093E4B6DF36
:10E79000BE0184E093E4D0DF41E06CE681E093E4E5
:10E7A000ADDF68E681E093E473DF8111FACF68E6BC
:10E7B00083E093E46DDF823229F040E16CE681E092
:10E7C00093E49CDF68E683E093E462DF8232B1F693
:10E7D000DF91CF910895CF9385E490E0C1DF87E189
:10E7E00090E088D18B3B91F489E190E083D1C82FF0
:10E7F00088E190E07FD12C2F30E0322F2227280FA4
:10E80000311D309328012093270106C089E797EB3B
:10E810009093280180932701CF9108952F923F92E2
:10E820004F925F926F927F928F929F92AF92BF9220
:10E83000CF92DF92EF92FF920F931F93CF93DF93CC
:10E84000CDB7DEB7CC50D240DEBFCDBF68E688E2A0
:10E8500093E43CDF009711F480E098ED9E012F5F78
:10E860003F4F79015E0133EFA31A3DEFB30A8701F1
:10E87000A016B10691F06C014FEFC41AD40A60E003
:10E8800007DFF80181938F01C114F0EEDF0619F460
:10E89000C12C88EDD82EC601EBCFBC0188E293E4F1
:10E8A0004BDF40E46CE681E093E428DF68E681E03A
:10E8B00093E4EEDE8111FACF0CE013E4F70141910D
:10E8C0007F016CE6C8011ADF0F5F1F4F0231F3E4CE
:10E8D0001F07A1F72F8130E0322F22278885790189
:10E8E000E80EF11C898590E0982F88272A85820FF1
:10E8F000911D0B8510E0102F00272C85020F111D94
:10E900008330910579F4093F1105A8F5809125011F
:10E91000909126010817190770F101968017910749
:10E9200050F124C025E0E21622E0F20620F5843002
:10E930009105CCF48130910529F10297E1F478DE5C
:10E940006FEF82E090E0DED0809127019091280166
:10E9500007DF1092260110922501109224011092D7
:10E96000230112E0A5C006976CF005C025E0E21671
:10E9700022E0F20648F08091270190912801F0DE14
:10E9800011E096C010E094C053DE97012450310985
:10E99000109324010093230101501109C801880F2D
:10E9A000892F881F990B9195A0E0B0E0BC015527F5
:10E9B0004427C801A0E0B0E0E9E0880F991FAA1F32
:10E9C000BB1FEA95D1F7AA27BB27842B952BA62B33
:10E9D000B72BAC01BD01420F531F611D711D4130AA
:10E9E000504F6140710508F062C02115F2E03F0709
:10E9F00010F414E001C012E0222319F02F5F3F4F02
:10EA0000FBCF7E014EE0E40EF11C40E050E001E05F
:10EA10004C015D0161E0961AA108B10863E0D62EB1
:10EA200075E0C72EE1E13E2E4217530708F038C0CB
:10EA30002C013D01440E551E611C711CF7013197DC
:10EA40006081F701208070E072290B01F201609271
:10EA50005B0000935700E89511244E5F5F4F411112
:10EA60001BC024013501440E551E611C711CF201AE
:10EA700060925B00D0925700E89507B600FCFDCF8E
:10EA8000F20160925B00C0925700E89507B600FC67
:10EA9000FDCF30925700E895F2E0EF0EF11CC4CFA5
:10EAA000143031F46EEE82E090E02CD001C013E01F
:10EAB000812FC45FDD4FDEBFCDBFDF91CF911F91AE
:10EAC0000F91FF90EF90DF90CF90BF90AF909F900D
:10EAD0008F907F906F905F904F903F902F90089510
:10EAE0006BBFFA01DC0102C007900D92215030404B
:10EAF000D8F70895F999FECF92BD81BDF89A99276C
:10EB000080B50895262FF999FECF1FBA92BD81BD19
:10EB100020BD0FB6F894FA9AF99A0FBE019608959F
:04EB2000F894FFCF97
:10EB240080C0A801FEFFFFFF00DEADBEEFFEEDC01A
:0CEB3400A801800000000007D0080000CD
:040000031000E00009
:00000001FF
