:1070000062C10000E1C10000DFC10000DDC100007D
:10701000DBC10000D9C10000D7C10000D5C100000C
:10702000D3C10000D1C10000CFC10000CDC100001C
:10703000CBC10000C9C10000C7C10000C5C100002C
:10704000C3C10000C1C10000BFC10000BDC100003C
:10705000BBC10000B9C10000B7C10000B5C100004C
:10706000B3C10000B1C10000537461727420757324
:107070006572206170700041726961646E6520669E
:107080006F722041726475696E6F20556E6F2C208F
:1070900056657273696F6E20302E35004D61696ED2
:1070A0003A20004E6574776F726B20696E697420A8
:1070B000646F6E650009202020204D41433A200076
:1070C00009476174657761793A2000092053756238
:1070D0006E65743A200009416464726573733A20E6
:1070E000004275696C742D696E2073657474696EE5
:1070F000677300454550524F4D2073657474696E37
:10710000677300204E65743A2000130005000049A3
:107110006E76616C696420696D6167652066696C73
:10712000650008000500004572726F7200090005D5
:10713000000346756C6C000A000500004F70636F19
:1071400064653F00496E697420736F636B657420DA
:10715000746F20706F727420000944617461506F05
:1071600072743A20005446545020736572766572EA
:1071700020696E697420646F6E6500526573706F6C
:107180006E73652073656E740053656E7420466976
:107190006E616C2041434B0053656E742041434B3C
:1071A00000496E76616C6964206F70636F6465205E
:1071B000004572726F720041636B6E6F776C65642D
:1071C000676500466C617368696E6720636F6D70F8
:1071D0006C657465005061636B6574206C656E67E7
:1071E00074682061646A757374656420746F20002C
:1071F00057726974696E6720646174612066726F8A
:107200006D20616464726573732000466C617368FD
:107210002069732066756C6C004368616E676564F5
:1072200020746F20706F727420004461746120625A
:107230006C6F636B00577269746520726571756558
:1072400073740052656164207265717565737400B2
:1072500020616E642064617461206C656E6774687F
:1072600020002077697468206F70636F6465200068
:107270005468697320697320626C6F636B200053DC
:1072800065742075702072657475726E2061646417
:1072900072657373004F766572666C6F770050721B
:1072A0006F63657373696E67207061636B657420CB
:1072B0006F662073697A652000546674703A200006
:1072C0003078000D0A0011241FBECFEFD8E0DEBFDA
:1072D000CDBF11E0A0E0B1E0E0E4F0E802C005902D
:1072E0000D92A032B107D9F711E0A0E2B1E001C0E0
:1072F0001D92AF32B107E1F701D0A0C614BE88E1FC
:107300000FB6F89480936000109260000FBE8FEF6C
:1073100093ECA9E081509040A040E1F700C000004C
:10732000112485E08093810080E090E071D688236D
:1073300021F080E090E060E073D681E090E068D6D4
:10734000843021F081E090E064E06AD6F0D48CE9EA
:1073500090E767E770E791D4A2D0AAD058D31092F3
:107360002D0110922E0113E0C0E0D0E080912D019C
:10737000882319F481D38823E9F080912E01882392
:1073800019F4FBD48823B1F02ED5882389F082E04C
:1073900090E03ED68E3E71F080912E01813041F416
:1073A000FE0110935700E89532D314D510922E01A8
:1073B000EFD4DCCF8CE990E768E670E75ED4EE2787
:1073C000FF27099480E090E01BCE20E52CBD2A9891
:1073D000292F33272EBD0DB407FEFDCF8EBD0DB472
:1073E00007FEFDCF80E88EBD0DB407FEFDCF81E026
:1073F0008EBD0DB407FEFDCF4EBD0DB407FEFDCF13
:107400002A9A1CBC0895EF92FF921F93CF93DF93AB
:10741000EC01162F7A01452F5527D7DFCE010196B3
:10742000612F4E2DD2DFDF91CF911F91FF90EF9012
:10743000089520E52CBD2A98292F33272EBD0DB4A1
:1074400007FEFDCF8EBD0DB407FEFDCF1EBC0DB4F3
:1074500007FEFDCF81E08EBD0DB407FEFDCF1EBC43
:107460000DB407FEFDCF2A9A8EB51CBC08950F936C
:107470001F93CF93DF93EC01162FDBDF082FCE0194
:107480000196612FD6DF202F30E0322F222790E0A7
:10749000822B932BDF91CF911F910F9108958CE355
:1074A00085B98CE284B95C9A549A81E08DBD0895C7
:1074B0000F931F93CF93DF9383E090E0A9D5853599
:1074C000B9F484E090E0A4D58A3A91F401E011E0A7
:1074D000C5E0D0E0CE019CD5F80181938F012196C3
:1074E000C731D105B9F783E091E763EF70E704C0D6
:1074F00083E091E761EE70E7C0D383E091E766ED4A
:1075000070E7BBD3CFE0D1E01FE0699170E080E08D
:1075100090E042E0E4D3123111F08EE215D41F5F07
:10752000133199F783E091E76BEC70E7A6D3C5E0E0
:10753000D1E015E0699170E080E090E042E0CFD3C7
:10754000183011F08EE200D41F5F193099F783E0F4
:1075500091E760EC70E791D3C1E0D1E001E069917F
:1075600070E080E090E042E0BAD3043011F08EE2A7
:10757000EBD30F5F053099F783E091E765EB70E798
:107580007CD3C9E0D1E0699170E080E090E042E016
:10759000A6D31E3011F08EE2D7D31F5F1F3099F7AC
:1075A00000E011E0C0E0D0E0F80141918F01CE0190
:1075B00060E00BDF2196CA31D105B1F7CFE1D0E40D
:1075C000CE0160E042E001DFCE01019760E042E0E1
:1075D000FCDEC050DF4FF8E4CF31DF0789F783E0EE
:1075E00091E763EA70E749D3DF91CF911F910F9143
:1075F0000895CF93DF93EC0189EB92E764E471E7A0
:107600003CD3BE0180E090E044E069D381E093E4A4
:107610006CE640E1DADE81E093E468E60ADF882385
:10762000D1F782E093E46CE64FEFCFDE80E093E4A5
:107630006CE642E0CADE84E093E46CE6AE01E3DE91
:1076400081E093E46CE641E0C0DE81E093E468E62B
:10765000F0DE8823D1F783E093E468E6EADE823245
:1076600029F081E093E46CE640E1AFDE83E093E44F
:1076700068E6DFDE8232A9F6DF91CF910895AF92FE
:10768000BF92CF92DF92EF92FF920F931F93CF930F
:10769000DF93CDB7DEB7CC50D240DEBFCDBF8C017B
:1076A00089EB92E76EE972E7E8D2B80180E090E0FA
:1076B00044E015D328E00030120728F089EB92E768
:1076C00065E972E7DAD288E293E468E6D0DEAC01DD
:1076D000009711F440E058ED1DE0C12E12E0D12ECC
:1076E000CC0EDD1E7E010894E11CF11C10C08A0145
:1076F0000F5F1F4FCA0160E09CDEF70181937F019D
:10770000F0EE00301F0711F400E018EDA801EC14B2
:10771000FD0469F788E293E46CE675DE81E093E4AA
:107720006CE640E452DE81E093E468E682DE882382
:10773000D1F78E010F5F1F4FBCE0EB2EB3E4FB2EA1
:10774000F80141918F01C7016CE63FDE0894E11C0E
:10775000F11CF2E1EF16F3E4FF0691F789EB92E7F3
:107760006FE772E78AD2AF80BB24BA2CAA2488853F
:10777000A80EB11C098510E0102F00278A85080F7C
:10778000111DEB84FF24FE2CEE248C85E80EF11CE9
:1077900089EB92E760E772E770D2B70180E090E092
:1077A00044E09DD282E692E752D2B80180E090E0B8
:1077B00044E095D280E592E74AD2ACEFCA2EAFEF13
:1077C000DA2ECA0CDB1CB60180E090E044E087D2E0
:1077D0000330110589F429E3E216F10458F480918D
:1077E000200190912101E816F90620F001968E15EE
:1077F0009F0510F400E010E085E0A81682E0B806CE
:1078000008F0E1C00330110509F43FC00430110550
:1078100040F40130110571F00230110509F0D5C0B6
:107820000EC00430110509F4C2C00530110509F07D
:10783000CCC0C2C089EB92E763E472E7C1C0CAD290
:1078400089EB92E765E372E718D282E090E06FEF90
:10785000E7D380912B0190912C01CBDE89EB92E74D
:1078600069E172E70AD260912B0170912C0180E0EE
:1078700090E044E034D21092210110922001109245
:1078800023011092220102E0B2C0A4D289EB92E758
:107890006AE272E7F2D1F0922301E09222010894A9
:1078A000E108F108FE2CEE24FF0CC7018C0D9D1D94
:1078B000E0E781309E0738F089EB92E76BE072E7F2
:1078C000DCD103E094C089EB92E760EF71E7D5D19A
:1078D000B70180E090E046E002D2F0E0CF16F2E09F
:1078E000DF0610F404E005C002E003C00894C11CE8
:1078F000D11CC6018F7790700097C1F789EB92E792
:1079000065ED71E7BAD1B60180E090E044E0E7D1DF
:10791000E114F10431F4CE010D9687D1882309F4E6
:1079200065C0DE011E9640E050E061E073E015E0C6
:1079300031E1A32E2DC08C9190E0382F2227FD013C
:107940003197808190E0282B392BF7010901609352
:107950005700E89511244E5F5F4FCA018F779070F2
:10796000009789F4EE57F04070935700E89507B6FA
:1079700000FCFDCF10935700E89507B600FCFDCF43
:10798000A0925700E895129682E090E0E80EF91E6A
:107990004C155D0580F2043051F589EB92E763ECFC
:1079A00071E76BD182E090E06EEE3AD320C089EBB4
:1079B00092E767EB71E704C089EB92E761EB71E74F
:1079C0005CD100E014C000E010E089EB92E761EACE
:1079D00071E753D1B80180E090E044E080D180911C
:1079E0002B0190912C0105DE01E001C005E0802F04
:1079F000C45FDD4FDEBFCDBFDF91CF911F910F91EF
:107A0000FF90EF90DF90CF90BF90AF900895CF930D
:107A100085E490E0EEDD87E190E0FAD28B3B91F4D3
:107A200089E190E0F5D2C82F88E190E0F1D22C2FC7
:107A300030E0322F2227280F311D30932C01209364
:107A40002B0106C089E797EB90932C0180932B01C3
:107A500089EB92E765E671E710D189EB92E769E57A
:107A600071E70BD160912B0170912C0180E090E0C7
:107A700044E035D1CF910895AF92BF92CF92DF927B
:107A8000FF920F931F93CF93DF93CDB7DEB7C55609
:107A9000D040DEBFCDBF86E293E468E6E8DC009725
:107AA00009F4B4C081E080932E010EC082E093E41B
:107AB0006CE644E08ADC8FEF97E8A3E181509040C8
:107AC000A040E1F700C0000082E093E468E6B1DC8A
:107AD00082FDECCF86E293E468E6C9DCD0DDF82EC7
:107AE00084E293E460E0C3DCC12C68E9D62EC80EC2
:107AF000D91E92E0F91659F19F1520F0A1E0FA166F
:107B000039F413C0B3E0FB16C9F0E4E0FE1699F1B6
:107B1000CE01019662E271E74AE050E070D22AE0BD
:107B20005E010894A11CB11C36C0CE01019667E32A
:107B300071E74CE050E063D22CE0F2CFCE01019629
:107B40006DE271E749E050E05AD229E0E9CF809137
:107B500022019091230120912001309121012817C9
:107B6000390720F4909321018093200189EB92E75B
:107B700068E971E704C089EB92E769E871E77DD0B5
:107B8000198284E08A8380912201909123019B8352
:107B90008C8324E0C5CF86010F5F1F4FD5014D9127
:107BA0005D01C60164E7A6962FAFA6970EDCA696E8
:107BB0002FADA697B0EA00301B0711F0680103C093
:107BC000C12C58E9D52E215031F7A6014050584913
:107BD00084E293E46CE617DC81E093E46CE640E237
:107BE000F4DB81E093E468E624DC8823D1F789EBB9
:107BF00092E76BE771E741D0E4E0FE1639F481E0EB
:107C000093E46CE640E1E1DB80E001C081E0CB5928
:107C1000DF4FDEBFCDBFDF91CF911F910F91FF905E
:107C2000DF90CF90BF90AF900895FC0180E09081ED
:107C30009C3049F49181943941F48C5F34968433BB
:107C4000B1F781E0089580E0089580E008950F93F2
:107C50001F93CF93DF93EC0110E0FE01E10FF11DC4
:107C60000491002311F0802F6FD01F5F0023A9F72C
:107C7000DF91CF911F910F9108950F931F93CF9391
:107C8000DF938C01EB0183EC92E7E1DFC801DFDFDA
:107C9000CE01DDDFDF91CF911F910F910895CF933A
:107CA000DF93EC018881882311F404C04DD08991C1
:107CB0008823E1F7DF91CF9108950F931F93CF931E
:107CC000DF938C01EB0183EC92E7C1DFC801BFDFDA
:107CD000CE01E5DFDF91CF911F910F910895CF92F3
:107CE000DF92EF92FF92CF936B017C01C42F80EC67
:107CF00092E7ADDF14C08C2F90E00197880F991F99
:107D0000880F991FA701960104C05695479537958E
:107D100027958A95D2F7DA01C9011DD0C150CC232D
:107D200051F7CF91FF90EF90DF90CF90089582E0D0
:107D30008093C00088E18093C10086E08093C200F8
:107D400080E18093C40008959091C00095FFFCCF1E
:107D50008093C60008958F708A3008F0895F805D37
:107D6000F3CF8091C00087FFFCCF8091C00084FDDD
:107D700001C0A8958091C60008958091C00087FF3A
:107D800005C028D081E080932D0155C081E0089581
:107D9000809184009091850092FF05C025B130E26A
:107DA000232725B901C02D98209124013091250168
:107DB0008217930750F420912601309127012F5FFD
:107DC0003F4F309327012093260190932501809304
:107DD00024010895109285001092840010922701CA
:107DE000109226010895E0E0F0E0859194912FEF44
:107DF0008F3F920751F081E02091260130912701B9
:107E00002530310518F480E0089580E00895A9DF59
:107E1000803239F088E18093600088E080936000D0
:107E2000FFCF84E191CFCF93C82F9BDFC150E9F7FB
:107E3000EEDFCF9108950F931F93CF93DF93CDB7CC
:107E4000DEB7C150D140DEBFCDBF8BDF8134A9F496
:107E500088DFCF5FDE4F8883C150D140D8DFCF5F4E
:107E6000DE4F8881C150D140823811F484E003C0D4
:107E7000813811F183E068DFB6C0823411F484E107
:107E800003C0853419F484E0CEDFADC0853581F4BC
:107E900068DF082F10E065DF90E0982F8827802B9F
:107EA000912B880F991F90932901809328019AC0E4
:107EB000863521F484E0B7DF80E0DDCF843609F039
:107EC00061C04FDF4EDF80932A014BDFE091280134
:107ED000F091290180E7E030F80720F483E08093F7
:107EE0005700E8958E010F5F1F4F3BDFF80181932C
:107EF0008F0180912A01815080932A018823A9F75C
:107F0000E0912801F091290180E7E030F80720F0A6
:107F100083E080935700E8957ADF07B600FCFDCF39
:107F200060912801709129010981FB0140E451E031
:107F30009E012F5F3F4F261B370B10E0D901AE0F7C
:107F4000BF1F11968C91119790E0982F8827802B56
:107F5000912B0C0150935700E8951124415029F0C2
:107F600012960C9112973296E8CF85E0FB01809330
:107F70005700E89507B600FCFDCF81E180935700DC
:107F8000E89531C08437D1F4ECDEEBDE80932A0132
:107F9000E8DE3DDFE0912801F0912901CF01019653
:107FA00090932901809328018491CEDE80912A014B
:107FB000815080932A01882369F715C0853739F4E9
:107FC00026DF8EE1C1DE85E9BFDE8FE054CF81354B
:107FD00049F41DDF82E090E06EEE22D080E1B4DE55
:107FE00080E004C014DF80E1AFDE81E0CF5FDE4FD0
:107FF000DEBFCDBFDF91CF911F910F910895FB019F
:10800000DC0102C005900D9241505040D8F7089510
:10801000F999FECF92BD81BDF89A992780B5089550
:10802000262FF999FECF1FBA92BD81BD20BD0FB694
:10803000F894FA9AF99A0FBE01960895F894FFCF32
:1080400080C0A85401FFFFFF00DEADBEEFFEEDC013
:10805000A854800000000007D00800000F020A00AA
:040000030000700089
:00000001FF
