:020000021000EC
:10E000006BC1000086C1000084C1000082C1000015
:10E0100080C100007EC100007CC100007AC1000008
:10E0200078C1000076C1000074C1000072C1000018
:10E0300070C100006EC100006CC100006AC1000028
:10E0400068C1000066C1000064C1000062C1000038
:10E0500060C100005EC100005CC100005AC1000048
:10E0600058C1000056C1000054C1000052C1000058
:10E0700050C100004EC100004CC100004AC1000068
:10E0800048C1000046C1000044C100004E657477DD
:10E090006F726B20696E697420646F6E6500092071
:10E0A0002020204D41433A20000947617465776183
:10E0B000793A200009205375626E65743A20000990
:10E0C000416464726573733A20004275696C742D03
:10E0D000696E2073657474696E67730045455052AC
:10E0E0004F4D2073657474696E677300204E6574BC
:10E0F0003A2000526573706F6E73652073656E749D
:10E100000053656E742046696E616C2041434B007C
:10E1100053656E742041434B0009000500034675AA
:10E120006C6C000A000500004F70636F64653F006F
:10E1300008000500004572726F72005374617274BA
:10E140002075736572206170700041726961646E40
:10E150006520666F722041726475696E6F204D652F
:10E16000676131323834502C2056657273696F6E96
:10E1700020302E35004D61696E3A2000496E697479
:10E1800020736F636B657420746F20706F727420DE
:10E1900000496E76616C6964206F70636F646520FE
:10E1A000004572726F720041636B6E6F776C6564CD
:10E1B000676500466C617368696E6720636F6D7098
:10E1C0006C657465005061636B6574206C656E6787
:10E1D00074682061646A757374656420746F2000CC
:10E1E00057726974696E6720646174612066726F2A
:10E1F0006D20616464726573732000466C6173689E
:10E200002069732066756C6C004461746120626CD7
:10E210006F636B004368616E67656420746F207084
:10E220006F7274200057726974652072657175652C
:10E230007374005265616420726571756573740052
:10E2400020616E642064617461206C656E6774681F
:10E2500020002077697468206F70636F6465200008
:10E260005468697320697320626C6F636B2000537C
:10E2700065742075702072657475726E20616464B7
:10E2800072657373004F766572666C6F77005072BB
:10E290006F63657373696E67207061636B6574206B
:10E2A0006F662073697A6520000944617461506F5C
:10E2B00072743A2000544654502073657276657229
:10E2C00020696E697420646F6E6500546674703ADC
:10E2D00020000D0A0030780011241FBECFEFD0E4DB
:10E2E000DEBFCDBF11E0A0E0B1E0E4E7F0EF01E078
:10E2F0000BBF02C007900D92AC31B107D9F721E0F6
:10E30000ACE1B1E001C01D92AB32B207E1F757D3E7
:10E31000AFC676CE109285001092840010922A012A
:10E3200010922901A89508958091C00087FFFCCF25
:10E330008091C00084FD01C0A8958091C600089519
:10E340009091C00095FFFCCF8093C6000895ECDF4C
:10E35000803239F088E18093600088E0809360002B
:10E36000FFCF84E1EDCFCF93C82FDEDFC150E9F7B7
:10E37000CF91EDCFCF92DF92EF92FF92CF93DF93C9
:10E38000C0E06C01E12CF12C8FEFE81AF80AB7011C
:10E39000A6014C0F511D611D711D6BBFFA01D79174
:10E3A000DD2311F08D2FCCDFCF5FD111F0CFDF91C6
:10E3B000CF91FF90EF90DF90CF900895CF92DF92B2
:10E3C000EF92FF92CF936B017C01C42F85ED92EE0B
:10E3D000D1DFCC23D1F08C2F90E00197880F991FCB
:10E3E000880F991FA701960104C056954795379548
:10E3F00027958A95D2F7DA01C9018F708A3008F023
:10E40000895F805D9DDFC150E4CFCF91FF90EF9099
:10E41000DF90CF9008950F931F93CF93DF938C01DC
:10E42000EB0182ED92EEA6DFC801A4DFCE01DF9101
:10E43000CF911F910F919ECF20E52CBD2C982FE0FE
:10E440002EBD0DB407FEFDCF292F33272EBD0DB4F1
:10E4500007FEFDCF8EBD0DB407FEFDCF1EBC0DB473
:10E4600007FEFDCF2C9A8EB51CBC08950F931F9309
:10E47000CF93DF938C01D62FDFDFC82F6D2FC8011C
:10E480000196DADF2C2F30E0322F2227A901482B0A
:10E49000CA01DF91CF911F910F91089520E52CBD06
:10E4A0002C9820EF2EBD0DB407FEFDCF292F33276A
:10E4B0002EBD0DB407FEFDCF8EBD0DB407FEFDCF02
:10E4C0004EBD0DB407FEFDCF2C9A1CBC08950F93D2
:10E4D0001F93CF93DF93EC018B01472F55276CE6F9
:10E4E000CE01DCDF402F6CE6CE010196DF91CF91AB
:10E4F0001F910F91D3CFCF93DF93EC016CE771EEB7
:10E500008BEC92EE88DFBE0180E090E044E056DFC5
:10E5100040E16CE681E097E0C1DF68E681E097E0EA
:10E520008BDF8111FACF4FEF6CE682E097E0B6DF28
:10E5300042E06CE680E097E0B1DFBE0184E097E066
:10E54000C6DF41E06CE681E097E0A8DF68E681E0A5
:10E5500097E072DF8111FACF68E683E097E06CDF25
:10E56000823229F040E16CE681E097E097DF68E6CF
:10E5700083E097E061DF8232B1F6DF91CF910895B9
:10E58000CF9385E490E0B7DF87E190E05BD58B3BEC
:10E5900091F489E190E056D5C82F88E190E052D5FA
:10E5A0002C2F30E0322F2227280F311D30932801E5
:10E5B0002093270106C089E797EB90932801809369
:10E5C000270165EB72EE8BEC92EE25DF69EA72EEC5
:10E5D0008BEC92EE20DF609127017091280180E0A2
:10E5E00090E044E0CF91EACE3F924F925F926F92DB
:10E5F0007F928F929F92AF92BF92CF92DF92EF92D3
:10E60000FF920F931F93CF93DF93CDB7DEB7CC501C
:10E61000D240DEBFCDBF8C016EE872EE8BEC92EE85
:10E62000FADEB80180E090E044E0C8DE0115184051
:10E6300028F065E872EE8BEC92EEEDDE68E688E29B
:10E6400097E014DF009711F480E098E7FE0131961F
:10E650007F015E01F3EFAF1AFDEFBF0A8701A0163D
:10E66000B10691F06C012FEFC21AD20A60E0E4DE2D
:10E67000F80181938F01C114F0E8DF0619F4C12C71
:10E6800088E7D82EC601EBCFBC0188E297E01FDFF8
:10E6900040E46CE681E097E001DF68E681E097E026
:10E6A000CBDE8111FACF0CE017E0F70141917F0139
:10E6B0006CE6C801F3DE0F5F1F4F0231F7E01F0762
:10E6C000A1F76FE672EE8BEC92EEA5DEEF80F12CF7
:10E6D000FE2CEE248885E80EF11C698570E0762F0B
:10E6E00066278A858B01080F111DCB84D12CDC2C69
:10E6F000CC248C85C80ED11C60E672EE8BEC92EEB9
:10E700008ADEB60180E090E044E058DE82E592EED9
:10E7100031DEB80180E090E044E050DE80E492EE2B
:10E7200029DE570124E0A21AB1082501612C712CC1
:10E7300044E0C301B20142DE0330110591F439EF28
:10E74000C316D10460F48091250190912601C8166A
:10E75000D90628F001968C159D0508F047C000E009
:10E7600010E085E0E81682E0F80608F044C00230C8
:10E77000110589F038F40130110509F03EC063E35A
:10E7800072EE2FC00430110551F105301105A9F5C5
:10E7900061EA71EE26C0BEDD65E272EE8BEC92EEB0
:10E7A0003ADE6FEF82E090E055D40091270110919E
:10E7B0002801C801A0DE64E172EE8BEC92EE2BDE44
:10E7C000B80180E090E044E0F9DD1092260110925B
:10E7D0002501109224011092230112E0CFC067EAB4
:10E7E00071EE8BEC92EE17DE10E0C8C085E0E81603
:10E7F00082E0F80698F000E010E061E971EE8BEC41
:10E8000092EE09DEB80180E090E044E0D7DD80912F
:10E810002701909128016FDE11E0B0C07BDD69E037
:10E8200072EE8BEC92EEF7DDD0922401C0922301C0
:10E83000C60101976C01CC0CCD2CCC1CDD08D19409
:10E84000E12CF12CB601552744276C01E12CF12C69
:10E85000E9E0CC0CDD1CEE1CFF1CEA95D1F7EE24A0
:10E86000FF24C42AD52AE62AF72A4C0C5D1C6E1C0C
:10E870007F1CE1E04E16E0EF5E06E1E06E067104FB
:10E8800038F06BEF71EE8BEC92EEC5DD13E076C0E5
:10E8900060EE71EE8BEC92EEBEDD46E0C701B60194
:10E8A0008DDDA114F2E0BF0610F414E001C012E007
:10E8B000AA2021F02FEFA21AB20AFACF65EC71EE6E
:10E8C0008BEC92EEA8DDC501A0E0B0E044E0BC0115
:10E8D000CD0174DDDE011E9680E090E001E02601AE
:10E8E000370131E0531A6108710823E0922E35E0B8
:10E8F000832E41E1342E8A159B0508F034C0B70100
:10E90000A601480F591F611D711DFD01319720811E
:10E91000EC9130E03E2B0901FA0160935B0000931B
:10E920005700E8951124029681111BC0A3019201A2
:10E93000280F391F411D511DF90140935B00909232
:10E940005700E89507B600FCFDCFF90140935B0046
:10E9500080925700E89507B600FCFDCF3092570033
:10E96000E8951296C8CF143049F463EB71EE8BEC46
:10E9700092EE51DD6EEE82E090E06CD3812FC45FA9
:10E98000DD4FDEBFCDBFDF91CF911F910F91FF9083
:10E99000EF90DF90CF90BF90AF909F908F907F903F
:10E9A0006F905F904F903F9008956BBFFA01DC012C
:10E9B00002C007900D9221503040D8F708952F9251
:10E9C0003F924F925F926F927F928F929F92AF92FF
:10E9D000BF92CF92DF92EF92FF920F931F93CF934C
:10E9E000DF93CDB7DEB7C750D140DEBFCDBF14BE79
:10E9F0000FB6F894A89580916000886180936000BC
:10EA0000109260000FBE99E288E10FB6F894A895C5
:10EA1000809360000FBE909360002FEF33EC49E0CD
:10EA2000215030404040E1F700C00000112485E053
:10EA30008093810080E090E005D3882321F060E09E
:10EA400080E090E007D381E090E0FCD2843021F0B8
:10EA500064E081E090E0FED282E08093C00088E133
:10EA60008093C10086E08093C20080E18093C4005F
:10EA70006AE471EE85E791EECEDC80EF85B980EB3C
:10EA800084B9479A3F9A81E08DBD83E090E0DAD265
:10EA90008535C1F484E090E0D5D28A3A99F4F1E06A
:10EAA000EF2EF1E0FF2E05E010E0C801CBD2F70118
:10EAB00081937F010F5F1F4F07311105B1F76CED97
:10EAC00070EE02C06AEC70EE8CEE90EEA4DC6FEBA0
:10EAD00070EE8CEE90EE9FDCEFE0EE2EE1E0FE2E8D
:10EAE0001FE0F70161917F0170E080E090E042E07B
:10EAF00065DC123111F08EE223DC1F5F133189F7E0
:10EB000064EB70EE8CEE90EE86DC75E0E72E71E043
:10EB1000F72E15E0F70161917F0170E080E090E051
:10EB200042E04CDC183011F08EE20ADC1F5F193035
:10EB300089F769EA70EE8CEE90EE6DDC61E0E62E0E
:10EB400061E0F62E01E0F70161917F0170E080E065
:10EB500090E042E033DC043011F08EE2F1DB0F5F35
:10EB6000053089F76EE970EE8CEE90EE54DC59E0DA
:10EB7000E52E51E0F52EF70161917F0170E080E014
:10EB800090E042E01BDC1E3011F08EE2D9DB1F5F0B
:10EB90001F3089F740E0E42E41E0F42E00E010E061
:10EBA000F70141917F0160E0C80178DC0F5F1F4FE2
:10EBB0000C311105A9F76CE870EE8CEE90EE2BDCB1
:10EBC000DFDC109222011092210180E391EE4C01D2
:10EBD000A12CB12CFFEFAF1ABF0A89E191EE2C01F5
:10EBE000612C712C2FEF621A720A83E291EEA0E081
:10EBF000B0E09C01AD014F5F5F4FCD5FDE4F2883DA
:10EC000039834A835B83C350D140AE014F5F5E4F6F
:10EC1000CF5FDE4F59834883C150D140809122019C
:10EC20008111AAC068E686E297E020DC892B09F40E
:10EC3000A3C081E08093210168E682E097E0FCDBDD
:10EC400082FF0FC044E06CE682E097E027DC5FEFD4
:10EC500087E893E1515080409040E1F700C0000008
:10EC6000EBCF68E686E297E001DCBEDC182F60E0BF
:10EC700084E297E0FBDB985A7C01123069F118F4CA
:10EC8000113091F005C01330F1F0143009F463C174
:10EC90002AE030E0B501A401CE01019686DE0AE04B
:10ECA000FE0131961F0149C02CE030E0CD5FDE4F00
:10ECB000488159816A817B81C350D140CE01019640
:10ECC00074DE0CE0EDCF29E030E0B301A201CE010B
:10ECD00001966BDE09E0E4CF80912301909124013D
:10ECE00020912501309126012817390720F49093AF
:10ECF00026018093250160E171EE8BEC92EE8BDBB7
:10ED0000198284E08A8380912301909124019B835E
:10ED10008C8304E0C5CFF10141911F016701FFEF32
:10ED2000CF1ADF0A64E7C701B9DBC11420E6D206B7
:10ED300019F4C12C38E5D32E7601015060F7B701E4
:10ED4000785584E297E0C3DB40E26CE681E097E02F
:10ED5000A5DB68E681E097E06FDB8111FACF63EF16
:10ED600070EE8BEC92EE57DB143031F440E16CE640
:10ED700081E097E093DB3AC1809121018111EEC0DF
:10ED80008091C00087FFEAC0C5DA81E0809322014C
:10ED9000CBDA8134B9F4C8DAC95FDE4F8883C75053
:10EDA000D140D5DAC95FDE4F8881C750D140823863
:10EDB00011F484E003C0813819F480E0C1DAC8C0DE
:10EDC00083E0FCCF823411F484E103C0853419F46C
:10EDD00084E0C9DABDC08535A1F4A6DA182FA4DA1B
:10EDE000212F30E0A901582BCA01292F221F2227E9
:10EDF000221F2BBF880F991F90931E0180931D0126
:10EE0000A6C0863519F484E0AEDAD7CF843609F08F
:10EE10006EC08ADA89DA80931C0186DAE0901D01DF
:10EE2000F0901E01E11450EEF50650F4C701A0E089
:10EE3000B0E023E0FC01A0935B0020935700E8952D
:10EE40008E010F5F1F4F70DAF80181938F0180915F
:10EE50001C01815080931C018111F5CFE114F0EE6B
:10EE6000FF0650F0C701A0E0B0E023E0FC01A09352
:10EE70005B0020935700E8956ADA07B600FCFDCFE7
:10EE80008981DE01119697012A1B3B0B11E0AD0130
:10EE9000420F531F129660E070E0FD013197E08150
:10EEA00090E09E2B0C01FA0160935B0010935700D9
:10EEB000E8951124CF5FDE4F48815981C150D14080
:10EEC000A417B50711F08C91E2CFC701A0E0B0E024
:10EED00025E0FC01A0935B0020935700E89507B65E
:10EEE00000FCFDCF81E180935700E89531C0843765
:10EEF000D9F41ADA19DA80931C0116DA28DA0091AB
:10EF00001D0110911E01F80186911ADA0F5F1F4F43
:10EF100010931E0100931D0180911C01815080936C
:10EF20001C018111ECCF14C0853739F410DA8EE161
:10EF300007DA87E905DA85E041CF813541F407DA60
:10EF40006EEE82E090E086D080E1FAD94FC0FFD922
:10EF500080E1F6D903C061E071EECFCE80E090E0B1
:10EF6000DC01ABBFFC01879196910196F1F0809195
:10EF7000290190912A010597C0F082E090E062D0CB
:10EF80008E3EA1F180912101813079F440E050E082
:10EF9000BA0183E0FA0160935B0080935700E89523
:10EFA000EFDAB8D910922101A89580918400909150
:10EFB000850092FF04C02BB120582BB901C05F9887
:10EFC00020911F01309120018217930750F4209166
:10EFD000290130912A012F5F3F4F30932A0120935E
:10EFE00029019093200180931F0118CE0FB6F89449
:10EFF000A895809160008861809360001092600005
:10F000000FBE6BE371EE85E791EE05DAEE27FF2781
:10F01000099480E090E0C95FDE4FDEBFCDBFDF9195
:10F02000CF911F910F91FF90EF90DF90CF90BF9005
:10F03000AF909F908F907F906F905F904F903F9098
:10F040002F900895F999FECF92BD81BDF89A992726
:10F0500080B50895262FF999FECF1FBA92BD81BDC4
:10F0600020BD0FB6F894FA9AF99A0FBE019608954A
:04F07000F894FFCF42
:10F0740080C0A801FEFFFFFF00DEADBEEFFEEDC0C5
:0CF08400A801800000000007D080555556
:040000031000E00009
:00000001FF
