:020000023000CC
:10E000008EC0000010C100000EC100000CC1000055
:10E010000AC1000008C1000006C1000004C10000E0
:10E0200002C1000000C10000FEC00000FCC00000F2
:10E03000FAC00000F8C00000F6C00000F4C0000004
:10E04000F2C00000F0C00000EEC00000ECC0000014
:10E05000EAC00000E8C00000E6C00000E4C0000024
:10E06000E2C00000E0C00000DEC00000DCC0000034
:10E07000DAC00000D8C00000D6C00000D4C0000044
:10E08000D2C00000D0C00000CEC00000CCC0000054
:10E09000CAC00000C8C00000C6C00000C4C0000064
:10E0A000C2C00000C0C00000BEC00000BCC0000074
:10E0B000BAC00000B8C00000B6C00000B4C0000084
:10E0C000B2C00000B0C00000AEC00000ACC0000094
:10E0D000AAC00000A8C00000A6C00000A4C00000A4
:10E0E000A2C000001300050000496E76616C6964EF
:10E0F00020696D6167652066696C65000800050030
:10E10000004572726F7200090005000346756C6C61
:10E11000000A000500004F70636F64653F00112422
:10E120001FBECFEFD1E2DEBFCDBF01E00CBF12E0DA
:10E13000A0E0B2E0ECEAFEEE03E00BBF02C0079005
:10E140000D92A032B107D9F712E0A0E2B2E001C00F
:10E150001D92AE32B107E1F701D0A6C661D32FEF11
:10E1600085EA9EE0215080409040E1F700C0000029
:10E17000112485E08093810080E090E07FD68823A1
:10E1800021F060E080E090E081D681E090E076D6FA
:10E19000843021F064E081E090E078D654D39CD0C4
:10E1A00054D22FEF85EA9EE0215080409040E1F765
:10E1B00000C0000010922C0210922D02C3E0C12C6E
:10E1C000D12C760180912C02882329F080912D0298
:10E1D000882349F004C05CD28111F8CF1DC08DD3D3
:10E1E000811105C017C054D38111F9CF15C082E049
:10E1F00090E044D68E3E81F080912D02813051F422
:10E20000F601E0925B00C0935700E8951ED26CD3F4
:10E2100010922D0248D3D6CFE0912002F091210236
:10E22000199580E090E0ECCE20E52CBD2C9820EFF5
:10E230002EBD0DB407FEFDCF292F33272EBD0DB403
:10E2400007FEFDCF8EBD0DB407FEFDCF6EBD0DB434
:10E2500007FEFDCF2C9A1CBC089520E52CBD2C9800
:10E260002FE02EBD0DB407FEFDCF292F33272EBD85
:10E270000DB407FEFDCF8EBD0DB407FEFDCF1EBC55
:10E280000DB407FEFDCF2C9A8EB51CBC08951F93CC
:10E29000CF93DF93EC01E1DF182FCE010196DDDF94
:10E2A000212F30E0322F2227A901482BCA01DF910C
:10E2B000CF911F9108950F931F93CF93DF938C01FC
:10E2C000EB01672F7727B0DF6C2FC8010196DF9134
:10E2D000CF911F910F91A8CF0F931F93CF93DF93EF
:10E2E0008FE085B987E084B92C9A249AA59A9D9AE3
:10E2F0002F9A279A81E08DBD83E090E0BFD58535C8
:10E3000029F000E012E0C0E0D0E013C084E090E02B
:10E31000B5D58A3AB1F701E012E0C5E0D0E0CE0110
:10E32000ADD5F80181938F012196C731D105B9F799
:10E33000E8CFF80161918F01CE0176DF2196CC31D3
:10E34000D105B9F7DF91CF911F910F910895CF9328
:10E35000DF93EC0160E181E097E066DFBE0184E0DD
:10E3600097E0A9DF62E080E097E05EDF61E081E0B6
:10E3700097E05ADF83E097E070DF823221F060E1BE
:10E3800081E097E051DF83E097E067DF823231F789
:10E39000DF91CF9108952F923F924F925F926F92AB
:10E3A0007F928F929F92AF92BF92CF92DF92EF9225
:10E3B000FF920F931F93CF93DF93CDB7DEB7CD506E
:10E3C000D240DEBFCDBF88E297E061DF009711F455
:10E3D00080E098E78E010F5F1F4F6E0123EFC21A96
:10E3E0002DEFD20A58010C151D0589F07C01EFEFC5
:10E3F000EE1AFE0A32DFF80181938F01E114F0E892
:10E40000FF0619F4E12C68E7F62EC701ECCFBC013A
:10E4100088E297E050DF60E481E097E005DF81E08B
:10E4200097E01BDF8111FBCF75010CE017E0F701CE
:10E4300061917F01C801F8DE0F5F1F4F0231F7E0E5
:10E440001F07A9F70F8110E0102F00278885080FFC
:10E45000111D898590E0982F88272A85820F911DAC
:10E46000EB84F12CFE2CEE242C85E20EF11C833083
:10E47000910589F429EFE21621E0F20690F58091EA
:10E48000220290912302E816F90658F101968E15A2
:10E490009F0538F122C00530124018F584309105EF
:10E4A000C8F48130910521F10297D9F41DD26FEFA4
:10E4B00082E090E0EBD480912A0290912B0247DF1A
:10E4C000109223021092220210922502109224022E
:10E4D00022E01FC0069760F004C0053082E01807F4
:10E4E000F0F080912A0290912B0231DF21E011C0DF
:10E4F000C35FDD4F1882CD50D2408BC0C114D10410
:10E50000E104F10469F5CE010D9676D1811128C0A0
:10E5100025E0C35FDD4F2883CD50D2407AC0E4D1DF
:10E5200004501109F0922502E0922402670181E073
:10E53000C81AD108DC2CCC24DD0CE12CF12C0115FF
:10E54000E2E01E0710F424E001C022E0C35FDD4FCB
:10E550002883CD50D240002389F20F5F1F4FFBCF9D
:10E56000DE011D9620E030E09924939426013701C6
:10E5700081E0581A61087108F3E08F2E85E0382E8B
:10E5800091E1292E37C0C701B601620F731F811DAB
:10E59000911DF501E20FF31F458550E0542F4427EC
:10E5A000EC914E2B0A01FB0180935B009092570087
:10E5B000E89511242E5F3F4F21111BC0B301A2012A
:10E5C000420F531F611D711DFA0160935B00809221
:10E5D0005700E89507B600FCFDCFFA0160935B0099
:10E5E00030925700E89507B600FCFDCF2092570007
:10E5F000E89512962017310708F4C5CFC35FDD4FA9
:10E600002881CD50D240243021F46EEE82E090E09B
:10E610003DD4C35FDD4F8881CD50D240C35FDD4F15
:10E62000DEBFCDBFDF91CF911F910F91FF90EF9093
:10E63000DF90CF90BF90AF909F908F907F906F9022
:10E640005F904F903F902F900895CF9385E490E096
:10E650007EDE87E190E012D48B3B91F489E190E07B
:10E660000DD4C82F88E190E009D42C2F30E0322F50
:10E670002227280F311D30932B0220932A0206C037
:10E6800089E797EB90932B0280932A02CF9108950C
:10E69000AF92BF92CF92DF92EF92FF920F931F93B0
:10E6A000CF93DF93CDB7DEB7C456D109DEBFCDBF60
:10E6B00086E297E0ECDD892B11F481E08EC081E0E9
:10E6C00080932D0282E097E0C8DD82FF0EC064E0F7
:10E6D00082E097E0A9DD2FEF37E883E12150304059
:10E6E0008040E1F700C00000EDCF55DEB82E84E297
:10E6F00097E0CDDD8C01185A92E0B91661F19B15B7
:10E7000020F0E1E0BE16A9F006C0F3E0BF16D1F09C
:10E7100024E0B21679F14AE050E06CEF70EECE01E1
:10E720000196A3D38AE0FE0131967F01A82EAE0E9A
:10E730003CC04CE050E061E171EECE01019695D312
:10E740008CE0F1CF49E050E067E071EECE01019638
:10E750008CD389E0E8CF20912402309125024091AA
:10E760002202509123024217530720F430932302D0
:10E7700020932202198284E08A832091240230911E
:10E7800025023B832C83CFCFF70161917F01680184
:10E79000FFEFCF1ADF0AC80147DDC11420E6D20619
:10E7A00019F4C12CE8E5DE2E8601AE10EDCFB801DC
:10E7B000785584E297E07FDD60E281E097E034DD28
:10E7C00081E097E04ADD8111FBCF34E0B31275CFD1
:10E7D00060E181E097E028DD80E0CC59DF4FDEBFCB
:10E7E000CDBFDF91CF911F910F91FF90EF90DF9000
:10E7F000CF90BF90AF90089520E030E0FC01E20F91
:10E80000F31F40814C3051F44181443939F42C5F7D
:10E810003F4F2433310591F781E0089580E008955A
:10E8200084B714BE98E10FB6F894909360001092EC
:10E8300060000FBE0895A8950895E0E6F0E098E125
:10E8400090838083089582E08093C00088E1809364
:10E85000C10086E08093C20080E18093C4000895E7
:10E860009091C00095FFFCCF8093C60008958F70F3
:10E870008A3008F0895F805DF3CF8091C00087FF08
:10E88000FCCF8091C00084FFD6DF8091C600089540
:10E890008091C00087FF05C027D081E080932C02C3
:10E8A0003CC081E00895809184009091850092FFA2
:10E8B00004C025B1205825B901C02F982091280205
:10E8C000309129028217930750F42091260230914B
:10E8D00027022F5F3F4F3093270220932602909309
:10E8E00029028093280208951092850010928400D6
:10E8F00010922702109226020895E0E0F0E0859140
:10E900009491019641F081E02091260230912702F6
:10E910002530310508F480E008952F923F924F9200
:10E920005F926F927F928F929F92AF92BF92CF929F
:10E93000DF92EF92FF920F931F93CF93DF93CDB7A8
:10E94000DEB7C052D140DEBFCDBFC25EDE4F1882FF
:10E95000CE51D140812C212C312C412C512C320113
:10E96000C12CD12C760100E010E040E0C15EDE4F0A
:10E970004883CF51D14081DFC15EDE4F4881CF5106
:10E98000D140433001F120F4413071F038F014C02F
:10E99000453021F1E0F0463091F17CC08B3131F708
:10E9A0008BE1882E41E0E2CF8826C25EDE4F88836D
:10E9B000CE51D14042E0DACF082F10E0102F0027CF
:10E9C000882643E0D3CF082B882644E0CFCF8E3073
:10E9D00061F68826212C312C45E0C8CF91012F5FAC
:10E9E0003F4FE1E0F0E0EC0FFD1FE20DF31D8083EF
:10E9F00088262017310709F435C21901B7CF8811CD
:10EA0000B4CF4981433109F4E2C060F5463009F4DE
:10EA1000CBC000F5423009F441C0433009F46BC06B
:10EA2000413009F09DC11A8288E08B8381E48C8398
:10EA300086E58D8382E58E8389E48F8383E58887ED
:10EA400080E589878FE58A8782E38B8720E00BE06A
:10EA500010E08BC1413109F45BC008F09CC040312B
:10EA6000E9F07EC1483109F46EC048F4453109F43B
:10EA7000AEC008F425C1463109F422C171C14A3142
:10EA800009F454C008F475C04B3109F444C04D3149
:10EA900039F066C1473009F4B4CF68CF20E039C0FF
:10EAA0008D81803339F49F819923B1F09130B1F495
:10EAB00098E917C0982F907599F0803521F499E066
:10EAC000E0E0F0E005C0883559F4E3E0F0E099E0DB
:10EAD00090935700949105C09EE103C091E001C05E
:10EAE00090E01A821B828C831D829E831F8220E00D
:10EAF00007E010E03AC1EA81E059E33028F4F0E0A1
:10EB0000E45EFD4F808101C080E01A828B833FC0AC
:10EB100021E01A8228C18D81882321F0813021F4DF
:10EB200088E924C08EE122C081E020C01A82E1E0A1
:10EB3000F0E089E080935700E491EB831C8220E0B1
:10EB400004E010E012C18B81803551F48C81883053
:10EB500019F4E2E0F0E006C089E0E0E0F0E003C094
:10EB6000E3E0F0E089E08093570084911A828B8380
:10EB7000E5CF8D81836C99E0E1E0F0E0082E909381
:10EB80005700E89507B600FCFDCF1A821B8220E0F3
:10EB900003E010E0EAC080EC8A8320E002E010E0AD
:10EBA000412C512C3201E1C08A81CB80D12CE12C47
:10EBB000F12C7601DD24CC24F82A8D81C82A8C81A1
:10EBC000D82ACC0CDD1CEE1CFF1C1A82CBC08A811B
:10EBD00090E0982F88272B81822B433109F045C084
:10EBE0004114F0EC5F06F3E06F06710470F423E06B
:10EBF000F20160925B0020935700E89507B600FC95
:10EC0000FDCF4FEF541A640A740A4B854601570131
:10EC10009E01255F3F4FD90112969D01FD0131975D
:10EC2000608150E0562B61E00A01F401A0925B0084
:10EC300060935700E8951124E2E08E0E911CA11C10
:10EC4000B11C0297009711F04C91E5CF85E0F601D9
:10EC5000E0925B0080935700E89507B600FCFDCF7B
:10EC600081E180935700E89527C0FE013B969C0107
:10EC7000B701A60141BD852E962EA72EBB2482BCCE
:10EC80004F5F5F4F6F4F7F4FA191A0BDFA9AF99AE6
:10EC9000F999FECF215031092115310559F7019716
:10ECA0004C01A12CB12CFFEF8F1A9F0AAF0ABF0AAB
:10ECB0008C0C9D1CAE1CBF1C1A827501640152C0D5
:10ECC0002A8130E0322F22278B81282B89010D5F8A
:10ECD0001F4F1A824431B1F4DE011396EBBEF601E8
:10ECE000879196918C931296FD013197908342E023
:10ECF000C40ED11CE11CF11C225031092115310533
:10ED000069F72BC0CE0103965C014901D701C6010A
:10ED100081BD492F5A2F6B2F772742BD0196A11D28
:10ED2000B11DF89A40B5F50141935F01F1E08F1AEA
:10ED300091088114910461F7C9010197A0E0B0E046
:10ED40000196A11DB11DC80ED91EEA1EFB1EA3E02F
:10ED5000B0E0AC0FBD1FA20FB31F1C9220E005C096
:10ED600080EC8A8320E002E010E08BE1C05EDE4FA1
:10ED70002883C052D14074DDC25EDE4F8881CE51FF
:10ED8000D1406EDDA12EBB248A2D6ADD802F68DD87
:10ED90008EE066DD25E1822EC25EDE4F4881CE51D7
:10EDA000D140842680268A24CE0101965C01080F7A
:10EDB000191FC05EDE4F2881C052D140A016B10697
:10EDC000B1F0F50131915F01832FC05EDE4F2883E2
:10EDD000C052D140C15EDE4F3883CF51D14040DDBB
:10EDE000C15EDE4F3881CF51D1408326E2CF882DDE
:10EDF000C05EDE4F2883C052D14032DDC25EDE4F9E
:10EE00004881CE51D1404F5FC25EDE4F4883CE5124
:10EE1000D140C05EDE4F2881C052D140222309F488
:10EE2000A2CD000081E180935700E8956EEE82E06C
:10EE300090E02CD080E0C05EDE4FDEBFCDBFDF9122
:10EE4000CF911F910F91FF90EF90DF90CF90BF90E7
:10EE5000AF909F908F907F906F905F904F903F907A
:10EE60002F900895180146E081CDFB01DC0102C01E
:10EE700005900D9241505040D8F70895F999FECF72
:10EE800092BD81BDF89A992780B50895262FF999EA
:10EE9000FECF1FBA92BD81BD20BD0FB6F894FA9A7D
:0CEEA000F99A0FBE01960895F894FFCF78
:10EEAC0080C0A801FEFFFFFF00DEADBEEFFEEDC08F
:10EEBC00A801800000000007D08055550F020A0001
:040000033000E000E9
:00000001FF
