:020000023000CC
:10E00000D9C1000071C200006FC200006DC20000E3
:10E010006BC2000069C2000067C2000065C2000058
:10E0200063C2000061C200005FC200005DC2000068
:10E030005BC2000059C2000057C2000055C2000078
:10E0400053C2000051C200004FC200004DC2000088
:10E050004BC2000049C2000047C2000045C2000098
:10E0600043C2000041C200003FC200003DC20000A8
:10E070003BC2000039C2000037C2000035C20000B8
:10E0800033C2000031C200002FC200002DC20000C8
:10E090002BC2000029C2000027C2000025C20000D8
:10E0A00023C2000021C200001FC200001DC20000E8
:10E0B0001BC2000019C2000017C2000015C20000F8
:10E0C00013C2000011C200000FC200000DC2000008
:10E0D0000BC2000009C2000007C2000005C2000018
:10E0E00003C20000537461727420757365722061FD
:10E0F000707000496E697420746674702073657264
:10E1000076657200496E6974206E6574776F726B04
:10E11000206C617965720041726961646E65206688
:10E120006F722041726475696E6F204D6567613250
:10E130003536302C2056657273696F6E20302E355F
:10E14000004D61696E3A20004E6574776F726B20E6
:10E15000696E697420646F6E650009202020204D6F
:10E1600041433A200009476174657761793A20009C
:10E1700009205375626E65743A2000094164647227
:10E180006573733A20004275696C742D696E207353
:10E19000657474696E677300454550524F4D207326
:10E1A000657474696E677300204E65743A200013BD
:10E1B00000050000496E76616C696420696D6167D5
:10E1C000652066696C650008000500004572726F85
:10E1D0007200090005000346756C6C000A0005001A
:10E1E000004F70636F64653F00496E697420736F00
:10E1F000636B657420746F20706F72742000094423
:10E2000061746120506F72743A200054465450205B
:10E2100073657276657220696E697420646F6E65CD
:10E2200000526573706F6E73652073656E74005372
:10E23000656E742046696E616C2041434B005365E6
:10E240006E742041434B00496E76616C6964206FA7
:10E2500070636F646520004572726F720041636B7A
:10E260006E6F776C6564676500466C617368696E94
:10E270006720636F6D706C657465005061636B65DA
:10E2800074206C656E6774682061646A7573746568
:10E290006420746F200057726974696E672064612E
:10E2A00074612066726F6D2061646472657373209F
:10E2B00000466C6173682069732066756C6C00435E
:10E2C00068616E67656420746F20706F72742000DF
:10E2D0004461746120626C6F636B0057726974658E
:10E2E0002072657175657374005265616420726592
:10E2F00071756573740020616E64206461746120BF
:10E300006C656E67746820002077697468206F7090
:10E31000636F646520005468697320697320626CC0
:10E320006F636B200053657420757020726574757F
:10E33000726E2061646472657373004F76657266F5
:10E340006C6F770050726F63657373696E672070CE
:10E3500061636B6574206F662073697A6520005471
:10E360006674703A200020696E7374656164206F72
:10E370006620307839340020696E737465616420DA
:10E380006F6620307830430020776974682000463B
:10E3900061696C6564206174200056616C69642059
:10E3A000696D6167650056616C643A2000307800E1
:10E3B0000D0A000011241FBECFEFD1E2DEBFCDBF9A
:10E3C00001E00CBF12E0A0E0B2E0EAEAF4EF03E003
:10E3D0000BBF02C007900D92A032B107D9F712E02F
:10E3E000A0E2B2E001C01D92AC32B107E1F702D069
:10E3F0000D9453FA14BE88E10FB6F8948093600030
:10E40000109260000FBE2FEF83EC99E02150804006
:10E410009040E1F700C00000112485E08093810066
:10E4200080E090E00F943DFA882329F060E080E0DE
:10E4300090E00F9445FA81E090E00F943DFA84302B
:10E4400029F064E081E090E00F9445FAF7D467E1A9
:10E4500071EE81E491EEA2D464E071EE81E491EE7C
:10E460009DD49BD063EF70EE81E491EE97D415D3E9
:10E4700010922A0210922B02C3E0C12CD12C7601FB
:10E4800080912A02882329F080912B02882349F069
:10E4900004C035D38111F8CF1DC02BD5811105C023
:10E4A00017C0F2D48111F9CF15C082E090E0E5D712
:10E4B0008E3E81F080912B02813051F4F601E09282
:10E4C0005B00C0935700E895E8D20AD510922B0262
:10E4D000E6D4D6CF64EE70EE81E491EE5FD4EE2701
:10E4E000FF27099480E090E08BCD20E52CBD2C988F
:10E4F00020EF2EBD0DB407FEFDCF292F33272EBDF3
:10E500000DB407FEFDCF8EBD0DB407FEFDCF6EBD71
:10E510000DB407FEFDCF2C9A1CBC089520E52CBD40
:10E520002C982FE02EBD0DB407FEFDCF292F3327E9
:10E530002EBD0DB407FEFDCF8EBD0DB407FEFDCF81
:10E540001EBC0DB407FEFDCF2C9A8EB51CBC0895E1
:10E550001F93CF93DF93EC01E1DF182FCE010196DB
:10E56000DDDF212F30E0322F2227A901482BCA01FD
:10E57000DF91CF911F9108950F931F93CF93DF9356
:10E580008C01EB01672F7727B0DF6C2FC801019654
:10E59000DF91CF911F910F91A8CF0F931F93CF932E
:10E5A000DF938FE085B987E084B92C9A249AA59AE5
:10E5B0009D9A2F9A279A81E08DBD83E090E05DD7E8
:10E5C0008535A9F484E090E058D78A3A81F401E0D7
:10E5D00012E0C5E0D0E0CE0150D7F80181938F0161
:10E5E0002196C731D105B9F768E971EE02C066E836
:10E5F00071EE88EA91EED2D36BE771EE88EA91EE84
:10E60000CDD3CFE0D2E01FE0899162E090E0F7D374
:10E61000123111F08EE21FD41F5F1331A9F760E7AA
:10E6200071EE88EA91EEBAD3C5E0D2E015E08991A7
:10E6300062E090E0E4D3183011F08EE20CD41F5F5A
:10E640001930A9F765E671EE88EA91EEA7D3C1E02B
:10E65000D2E001E0899162E090E0D1D3043011F082
:10E660008EE2F9D30F5F0530A9F76AE571EE88EA0B
:10E6700091EE94D3C9E0D2E0899162E090E0BFD3FB
:10E680001E3011F08EE2E7D31F5F1F30A9F700E0C4
:10E6900012E0C0E0D0E0F80161918F01CE0125DFEA
:10E6A0002196CC31D105B9F768E471EE88EA91EE94
:10E6B000DF91CF911F910F9171C3CF93DF93EC0145
:10E6C00069EE71EE8FE593EE69D364E0CE0197D3E6
:10E6D00060E181E097E009DFBE0184E097E04CDF74
:10E6E00062E080E097E001DF61E081E097E0FDDE3D
:10E6F00083E097E013DF823221F060E181E097E070
:10E70000F4DE83E097E00ADF823231F7DF91CF91C8
:10E7100008952F923F924F925F926F927F928F92C5
:10E720009F92AF92BF92CF92DF92EF92FF920F93A0
:10E730001F93CF93DF93CDB7DEB7CC50D240DEBF6F
:10E74000CDBF8C0164E473EE8FE593EE27D364E0D4
:10E75000C80155D30115184028F06BE373EE8FE51F
:10E7600093EE1CD388E297E0F3DE009711F480E08B
:10E7700098E78E010F5F1F4F6E01E3EFCE1AEDEFAA
:10E78000DE0A58010C151D0589F07C01FFEFEF1A18
:10E79000FF0AC4DEF80181938F01E114F0E8FF065F
:10E7A00019F4E12CE8E7FE2EC701ECCFBC0188E2AA
:10E7B00097E0E2DE60E481E097E097DE81E097E0B9
:10E7C000ADDE8111FBCF75010CE017E0F70161911F
:10E7D0007F01C8018ADE0F5F1F4F0231F7E01F077C
:10E7E000A9F765E273EE8FE593EED8D28F80912C76
:10E7F000982C88248885880E911CE984F12CFE2CA5
:10E80000EE248A85E80EF11CCB84D12CDC2CCC24A0
:10E810008C85C80ED11C66E173EE8FE593EEBED2F7
:10E8200064E0C601ECD288E093EE94D264E0C701C4
:10E83000E6D286EF92EE8ED284010450110964E094
:10E84000C801DDD223E0E216F10499F489EFC8167D
:10E8500081E0D80660F48091200290912102C816D0
:10E86000D90628F001968C159D0508F04CC0E12CC6
:10E87000F12CE5E08E16E2E09E0608F0E5C0F3E03C
:10E88000EF16F10409F445C070F581E0E816F104D3
:10E89000B9F1E2E0EE16F10409F0D8C021D36BED36
:10E8A00072EE8FE593EE7AD26FEF82E090E0EDD5D5
:10E8B000809128029091290200DF6FEB72EE8FE5C4
:10E8C00093EE6CD264E0809128029091290297D255
:10E8D0001092210210922002109223021092220222
:10E8E00042E0942EC2C0F4E0EF16F10409F4A5C092
:10E8F00025E0E216F10409F0A9C067E572EE9FC0B9
:10E9000069EE72EE9CC0F5E08F16F2E09F0608F00B
:10E910009BC0E6D260ED72EE8FE593EE3FD2D092CF
:10E920002302C0922202460181E0881A9108982CA5
:10E930008824990C6401E12CF12C66E972EE8FE5D4
:10E9400093EE2CD264E0C4015AD20115E2E01E0716
:10E9500018F424E0922E02C092E0992E002319F0C0
:10E960000F5F1F4FFBCF6BE772EE8FE593EE16D272
:10E9700064E0C80144D2C114D104E104F10419F4E3
:10E98000CE010D968FD1DE011D9620E030E02601EC
:10E990003701F1E05F1A61087108F5E03F2E81E16F
:10E9A000282E2017310708F03BC0C701B601620FBF
:10E9B000731F811D911DF501E20FF31F458550E086
:10E9C000542F4427EC914E2B882483940A01FB0199
:10E9D00080935B0080925700E89511242E5F3F4F93
:10E9E00021111CC0B301A201420F531F611D711DF3
:10E9F00083E0FA0160935B0080935700E89507B6C7
:10EA000000FCFDCFFA0160935B0030925700E8955F
:10EA100007B600FCFDCF20925700E8951296C1CFB3
:10EA2000E4E09E1222C069E672EE8FE593EEB6D165
:10EA30006EEE82E090E029D518C06DE572EE8FE5AC
:10EA400093EEACD1912C11C0E12CF12C67E472EE65
:10EA50008FE593EEA3D164E0C701D1D18091280264
:10EA6000909129022ADE99249394892DC45FDD4F69
:10EA7000DEBFCDBFDF91CF911F910F91FF90EF903F
:10EA8000DF90CF90BF90AF909F908F907F906F90CE
:10EA90005F904F903F902F900895CF9385E490E042
:10EAA0000CDE87E190E0E9D48B3B91F489E190E0C2
:10EAB000E4D4C82F88E190E0E0D42C2F30E0322F4E
:10EAC0002227280F311D309329022093280206C0E7
:10EAD00089E797EB90932902809328026BE072EE0E
:10EAE0008FE593EE5BD16EEF71EE8FE593EE56D12D
:10EAF00064E08091280290912902CF9180C1AF9269
:10EB0000BF92CF92DF92EF92FF920F931F93CF931A
:10EB1000DF93CDB7DEB7C456D109DEBFCDBF86E2E5
:10EB200097E016DD892B11F481E0ADC081E0809380
:10EB30002B0282E097E0F2DC82FF0EC064E082E00C
:10EB400097E0D3DC2FEF37E883E12150304080405D
:10EB5000E1F700C00000EDCF86E297E0F9DCD9DDF7
:10EB6000F82E84E297E0F4DC8C01185A92E0F91652
:10EB7000C9F19F1520F0E1E0FE16D1F007C0F3E0E7
:10EB8000FF1619F124E0F21609F47AC047EC51EEB1
:10EB900060E070E06D5F7F4F2AE030E0CE010196CB
:10EBA00063D48AE0FE0131966F01E82EEE0E4AC072
:10EBB0004CED51EE60E070E06D5F7F4F2CE030E097
:10EBC000CE01019651D48CE0EDCF42ED51EE60E0E4
:10EBD00070E06D5F7F4F29E030E0CE01019644D4B4
:10EBE00089E0E0CF809122029091230220912002BF
:10EBF000309121022817390720F490932102809345
:10EC000020026EE372EE8FE593EEC8D0198284E0A5
:10EC10008A8380912202909123029B838C8384E0DB
:10EC2000C1CFF60161916F015801FFEFAF1ABF0A22
:10EC3000C8015BDCA11420E6B20619F4A12CA8E5FA
:10EC4000BA2E8501EC10EDCFB801785584E297E03B
:10EC500093DC60E281E097E048DC81E097E05EDCF5
:10EC60008111FBCF61E272EE8FE593EE97D034E035
:10EC7000F3125ACF60E181E097E037DC80E003C017
:10EC80006FE272EEC0CFCC59DF4FDEBFCDBFDF9158
:10EC9000CF911F910F91FF90EF90DF90CF90BF9099
:10ECA000AF900895DF92EF92FF920F931F93CF934F
:10ECB000DF938C017C018FEFE81AF80AC0E0D0E006
:10ECC000F80180818C3099F06FE873EE86EA93EE5C
:10ECD00065D064E0CE0193D088E893EE3BD0F80194
:10ECE000808164E090E08BD087E793EE18C0F70155
:10ECF00080818439B9F06FE873EE86EA93EE4ED0E6
:10ED00008C2F90E064E001967AD088E893EE22D0D0
:10ED1000F701808164E090E072D086E693EE1AD02D
:10ED200080E010C024960C5F1F4FF4E0EF0EF11C42
:10ED3000C433D10509F0C4CF6AE973EE86EA93EED5
:10ED40002DD081E0DF91CF911F910F91FF90EF9037
:10ED5000DF900895CF92DF92EF92FF92CF93DF93EF
:10ED6000D0E06C01E12CF12C83E0E80EF11CD7011E
:10ED7000C6018D0F911DA11DB11DABBFFC01C79137
:10ED8000CC2311F08C2F67D0DF5FC111F0CFDF9162
:10ED9000CF91FF90EF90DF90CF9008950F931F9346
:10EDA000CF93DF93EC018B0180EB93EED3DFCE01A9
:10EDB000D1DFC801DF91CF911F910F91CBCFCF93BE
:10EDC000DF93FC012081222331F0EC01899188231B
:10EDD00011F041D0FBCFDF91CF9108950F931F9396
:10EDE000CF93DF93EC018B0180EB93EEB3DFCE0189
:10EDF000B1DFC801DF91CF911F910F91E0CF1F9339
:10EE0000CF93DF93EC01162F8DEA93EEA3DF11234E
:10EE100089F0212F30E021503109220F331F220FBA
:10EE2000331FCE0102C0969587952A95E2F71AD036
:10EE30001150EDCFDF91CF911F91089582E0809323
:10EE4000C00088E18093C10086E08093C20080E129
:10EE50008093C40008959091C00095FFFCCF8093EB
:10EE6000C60008958F708A3008F0895F805DF3CF07
:10EE70008091C00087FFFCCF8091C00084FD01C05D
:10EE8000A8958091C60008958091C00087FF05C0B5
:10EE900027D081E080932A023FC081E008958091CD
:10EEA00084009091850092FF04C025B1205825B9B7
:10EEB00001C02F98209126023091270282179307D4
:10EEC00050F420912402309125022F5F3F4F309360
:10EED000250220932402909327028093260208950E
:10EEE0001092850010928400109225021092240244
:10EEF000089580E090E0DC01ABBFFC018791969122
:10EF0000019641F081E020912402309125022530C4
:10EF1000310508F480E008952F923F924F925F925E
:10EF20006F927F928F929F92AF92BF92CF92DF9219
:10EF3000EF92FF920F931F93CF93DF93CDB7DEB77E
:10EF4000C052D140DEBFCDBFC25EDE4F1882CE516F
:10EF5000D140812C212C312C412C512C3201C12C3F
:10EF6000D12C760100E010E040E0C15EDE4F488326
:10EF7000CF51D1407DDFC15EDE4F4881CF51D140BE
:10EF8000433001F120F4413071F038F014C04530C5
:10EF900021F1E0F0463091F17CC08B3131F78BE10B
:10EFA000882E41E0E2CF8826C25EDE4F8883CE51B4
:10EFB000D14042E0DACF082F10E0102F002788263A
:10EFC00043E0D3CF082B882644E0CFCF8E3061F6C4
:10EFD0008826212C312C45E0C8CF91012F5F3F4F6F
:10EFE000E1E0F0E0EC0FFD1FE20DF31D80838826C9
:10EFF0002017310709F435C21901B7CF8811B4CFF2
:10F000004981433109F4E2C060F5463009F4CBC0D0
:10F0100000F5423009F441C0433009F46BC041307F
:10F0200009F09DC11A8288E08B8381E48C8386E598
:10F030008D8382E58E8389E48F8383E5888780E5ED
:10F0400089878FE58A8782E38B8720E00BE010E0D9
:10F050008BC1413109F45BC008F09CC04031E9F03C
:10F060007EC1483109F46EC048F4453109F4AEC0A0
:10F0700008F425C1463109F422C171C14A3109F4AD
:10F0800054C008F475C04B3109F444C04D3139F017
:10F0900066C1473009F4B4CF68CF20E039C08D8114
:10F0A000803339F49F819923B1F09130B1F498E91C
:10F0B00017C0982F907599F0803521F499E0E0E021
:10F0C000F0E005C0883559F4E3E0F0E099E0909372
:10F0D0005700949105C09EE103C091E001C090E00B
:10F0E0001A821B828C831D829E831F8220E007E090
:10F0F00010E03AC1EA81E059E33028F4F0E0E45E40
:10F10000FD4F808101C080E01A828B833FC021E0E7
:10F110001A8228C18D81882321F0813021F488E969
:10F1200024C08EE122C081E020C01A82E1E0F0E03C
:10F1300089E080935700E491EB831C8220E004E097
:10F1400010E012C18B81803551F48C81883019F424
:10F15000E2E0F0E006C089E0E0E0F0E003C0E3E0D8
:10F16000F0E089E08093570084911A828B83E5CF89
:10F170008D81836C99E0E1E0F0E0082E90935700D8
:10F18000E89507B600FCFDCF1A821B8220E003E061
:10F1900010E0EAC080EC8A8320E002E010E0412C1D
:10F1A000512C3201E1C08A81CB80D12CE12CF12C91
:10F1B0007601DD24CC24F82A8D81C82A8C81D82AB6
:10F1C000CC0CDD1CEE1CFF1C1A82CBC08A8190E0A7
:10F1D000982F88272B81822B433109F045C0411499
:10F1E000F0EC5F06F3E06F06710470F423E0F201C7
:10F1F00060925B0020935700E89507B600FCFDCFB6
:10F200004FEF541A640A740A4B85460157019E0158
:10F21000255F3F4FD90112969D01FD013197608115
:10F2200050E0562B61E00A01F401A0925B0060936C
:10F230005700E8951124E2E08E0E911CA11CB11C30
:10F240000297009711F04C91E5CF85E0F601E0922E
:10F250005B0080935700E89507B600FCFDCF81E185
:10F2600080935700E89527C0FE013B969C01B701AB
:10F27000A60141BD852E962EA72EBB2482BC4F5FD2
:10F280005F4F6F4F7F4FA191A0BDFA9AF99AF999FC
:10F29000FECF215031092115310559F701974C0155
:10F2A000A12CB12CFFEF8F1A9F0AAF0ABF0A8C0C5A
:10F2B0009D1CAE1CBF1C1A827501640152C02A81BC
:10F2C00030E0322F22278B81282B89010D5F1F4FC1
:10F2D0001A824431B1F4DE011396EBBEF601879138
:10F2E00096918C931296FD013197908342E0C40E63
:10F2F000D11CE11CF11C225031092115310569F79F
:10F300002BC0CE0103965C014901D701C60181BD26
:10F31000492F5A2F6B2F772742BD0196A11DB11D92
:10F32000F89A40B5F50141935F01F1E08F1A910819
:10F330008114910461F7C9010197A0E0B0E0019642
:10F34000A11DB11DC80ED91EEA1EFB1EA3E0B0E030
:10F35000AC0FBD1FA20FB31F1C9220E005C080ECB4
:10F360008A8320E002E010E08BE1C05EDE4F28835C
:10F37000C052D14070DDC25EDE4F8881CE51D14097
:10F380006ADDA12EBB248A2D66DD802F64DD8EE030
:10F3900062DD25E1822EC25EDE4F4881CE51D14032
:10F3A000842680268A24CE0101965C01080F191F4D
:10F3B000C05EDE4F2881C052D140A016B106B1F028
:10F3C000F50131915F01832FC05EDE4F2883C0526B
:10F3D000D140C15EDE4F3883CF51D1403CDDC15EAC
:10F3E000DE4F3881CF51D1408326E2CF882DC05ED9
:10F3F000DE4F2883C052D1402EDDC25EDE4F4881F1
:10F40000CE51D1404F5FC25EDE4F4883CE51D140D6
:10F41000C05EDE4F2881C052D140222309F4A2CD24
:10F42000000081E180935700E8956EEE82E090E065
:10F430002CD080E0C05EDE4FDEBFCDBFDF91CF912C
:10F440001F910F91FF90EF90DF90CF90BF90AF9002
:10F450009F908F907F906F905F904F903F902F90F4
:10F460000895180146E081CDFA01DC0102C0059043
:10F470000D9221503040D8F70895F999FECF92BDF2
:10F4800081BDF89A992780B50895262FF999FECF66
:10F490001FBA92BD81BD20BD0FB6F894FA9AF99AB1
:0AF4A0000FBE01960895F894FFCF07
:10F4AA0080C0A801FEFFFFFF00DEADBEEFFEEDC08B
:10F4BA00A801800000000007D08055550F020A00FD
:040000033000E000E9
:00000001FF
