:1070000050C00000BEC00000BCC00000BAC00000FC
:10701000B8C00000B6C00000B4C00000B2C000009C
:10702000B0C00000AEC00000ACC00000AAC00000AC
:10703000A8C00000A6C00000A4C00000A2C00000BC
:10704000A0C000009EC000009CC000009AC00000CC
:1070500098C0000096C0000094C0000092C00000DC
:1070600090C000008EC000001300050000496E763D
:10707000616C696420696D6167652066696C650093
:1070800008000500004572726F72000900050003D8
:1070900046756C6C000A000500004F70636F6465F4
:1070A0003F0011241FBECFEFD8E0DEBFCDBF11E0FF
:1070B000A0E0B1E0E4EFF9E702C005900D92AC3139
:1070C000B107D9F711E0ACE1B1E001C01D92AB32DC
:1070D000B107E1F701D08CC406D32FEF85EA9EE01B
:1070E000215080409040E1F700C00000112485E06D
:1070F00080938100FDD39ED0ACD2EFEFF5EA2EE075
:10710000E150F0402040E1F700C00000109226015D
:107110001092270113E0C0E0D0E08091260188237F
:1071200029F080912701882349F004C095D281116C
:10713000F8CF20C02FD4811105C01AC0CED3811141
:10714000F9CF18C080912701813069F4109227018E
:1071500007B600FCFDCFF999FECFFE0117BFE895F9
:1071600014D477D205C082E090E02CD48B3B11F090
:10717000EAD3D3CFE0911C01F0911D01099580E085
:1071800090E03ECF20E52CBD2A9820EF2EBD0DB417
:1071900007FEFDCF292F33272EBD0DB407FEFDCFEF
:1071A0008EBD0DB407FEFDCF6EBD0DB407FEFDCF45
:1071B0002A9A1CBC089520E52CBD2A982FE02EBDEC
:1071C0000DB407FEFDCF292F33272EBD0DB407FECA
:1071D000FDCF8EBD0DB407FEFDCF1EBC0DB407FE66
:1071E000FDCF2A9A8EB51CBC08951F93CF93DF93D1
:1071F000EC01E1DF182FCE010196DDDF212F30E019
:10720000322F2227A901482BCA01DF91CF911F916C
:1072100008950F931F93CF93DF938C01EB01672F9A
:107220007727B0DF6C2FC8010196DF91CF911F91B6
:107230000F91A8CF0F931F93CF93DF938CE284B964
:107240008CE385B9219A299A81E08DBD89E797EB76
:10725000909325018093240180E090E0B3D385359D
:1072600019F581E090E0AED38A3AF1F401E011E043
:10727000C3E0D0E0CE01A6D3F80181938F0121961F
:10728000C531D105B9F786E190E09CD3C82F85E1DF
:1072900090E098D32C2F30E0322F2227280F311D79
:1072A000309325012093240100E011E0C0E0D0E0FC
:1072B000F80161918F01CE0165DF2196CC31D105B6
:1072C000B9F7DF91CF911F910F910895CF93DF937D
:1072D000EC01BE0184E097E09CDF62E080E097E093
:1072E00051DF61E081E097E04DDF83E097E063DF0D
:1072F000823221F060E181E097E044DF83E097E0B3
:107300005ADF823231F7DF91CF910895CF92DF9229
:10731000EF92FF920F931F93CF93DF93CDB7DEB71A
:10732000CC50D240DEBFCDBF88E297E05EDF009751
:1073300011F480E098E78E010F5F1F4F6E0123EF7D
:10734000C21A2DEFD20A7C014FEFE41AF40A33DFA0
:10735000F80181938F01E114F0E8FF0611F0C701F5
:1073600002C080E098E70C151D0569F7BC0188E2B2
:1073700097E04FDF60E481E097E004DF81E097E091
:107380001ADF8111FBCFEE24E394F12CEC0EFD1EED
:107390000CE017E0F70161917F01C801F3DE0F5F98
:1073A0001F4F0231F7E01F07A9F70F81D884EB8444
:1073B0002C85898590E0982F88273A85830F911D29
:1073C0008330910529F140F48130910509F4AFC073
:1073D000029709F09CC004C0069708F098C0A7C0A7
:1073E0006FEF82E090E0F6D260E481E097E0CADEE1
:1073F00060E181E097E0C6DE809124019091250153
:1074000065DF10921F0110921E0122E0D22E96C05D
:10741000F12CFE2CEE24E20EF11CB7D210E0102F5E
:1074200000270D0D111D04501109F0921F01E0926B
:107430001E0121E0E21AF108FE2CEE24FF0CA70148
:1074400060E070E0DB01CA01800F911FA11DB11D3A
:1074500081309047A105B10508F06BC00115F2E03D
:107460001F0718F4A4E0DA2E05C0F2E0DF2E02C0F8
:107470000F5F1F4FC8018F779927892BC9F7452BBD
:10748000462B472B31F4CE010D9619D1882309F4F0
:1074900053C0DE011D9620E030E081E093E065E01E
:1074A00071E12AC0E1E0F0E0EC0FFD1FE20FF31FF5
:1074B000458550E0542F4427EC914E2BF7010A01EB
:1074C00087BFE89511242E5F3F4FA9014F775527BD
:1074D000452B71F4EE57F10997BFE89507B600FC0C
:1074E000FDCF67BFE89507B600FCFDCF77BFE895F5
:1074F0001296F2E0EF0EF11C2017310798F224E00B
:10750000D2121CC06BEB82E090E064D217C060E442
:1075100081E097E037DE60E181E097E033DE809143
:10752000240190912501D2DEDD24D39407C0D12C13
:1075300005C093E0D92E02C085E0D82E8D2DC45F02
:10754000DD4FDEBFCDBFDF91CF911F910F91FF9037
:10755000EF90DF90CF900895BF92CF92DF92EF929D
:10756000FF920F931F93CF93DF93CDB7DEB7C4562F
:10757000D109DEBFCDBF8C0184E297E036DE985A98
:107580007C010230110559F120F40130110539F464
:1075900014C003301105D1F00430110501F14AE0A7
:1075A00050E060E870E7CE01019603D28AE08E01D8
:1075B0000F5F1F4FB82EB00E2EC04CE050E065E9B3
:1075C00070E7CE010196F5D18CE0F1CF49E050E0B3
:1075D0006BE870E7CE010196ECD189E0E8CF198223
:1075E00084E08A8380911E0190911F019B838C838C
:1075F00084E0DDCFF80161918F016701FFEFCF1AC1
:10760000DF0AC701BFDDC11480E6D80619F4C12C1A
:1076100058E5D52E7601B012EDCFB701785584E24A
:1076200097E0F7DD60E281E097E0ACDD81E097E094
:10763000C2DD8111FBCFCC59DF4FDEBFCDBFDF9163
:10764000CF911F910F91FF90EF90DF90CF90BF905F
:10765000089585E490E03ACE0F931F93CF93DF9384
:10766000C0E0D0E086E297E0C0DD8C01009769F0D1
:107670002FEF80E792E0215080409040E1F700C07A
:10768000000086E297E0B1DDEC01C017D10751F7A9
:10769000CD2B11F481E00EC081E08093270136DE0E
:1076A000C82F90E059DFC430A9F760E181E097E08E
:1076B00069DD80E0DF91CF911F910F91089520E067
:1076C00030E0FC01E20FF31F40814C3051F4418166
:1076D000443939F42C5F3F4F2433310591F781E071
:1076E000089580E0089584B714BE98E10FB6F89429
:1076F00090936000109260000FBE0895A8950895C1
:10770000E0E6F0E098E190838083089511D1803223
:1077100019F088E0F5DFFFCF84E1F7C0CF93C82FE1
:1077200007D1C150E9F7CF91F1CF0F931F93CF93BA
:10773000DF93CDB7DEB7C150D140DEBFCDBFF8D0AB
:107740008134A9F4F5D0CF5FDE4F8883C150D1409A
:10775000DDDFCF5FDE4F8881C150D140823811F428
:1077600083E003C08138E1F780E0CFD0AAC0823443
:1077700011F484E103C0853419F484E0CFDFA1C0A3
:10778000853569F4D5D0182FD3D0212F30E0382B90
:10779000220F331F309321012093200191C08635A1
:1077A00019F484E0BBDFE0CF843609F059C0C0D0C3
:1077B000BFD080932801BCD0E0912001F09121013D
:1077C000E11580E7F80718F483E087BFE8958E019C
:1077D0000F5F1F4FADD0F80181938F018091280179
:1077E0008150809328018111F5CFE0912001F09123
:1077F0002101E11580E7F80718F083E087BFE895DD
:1078000085DF07B600FCFDCF40912001509121019A
:10781000298180E090E061E0A1E0B0E0AC0FBD1F05
:10782000A80FB91FFC01E40FF51F11967C91119769
:1078300030E0372B090167BFE89511248E37910599
:1078400021F012962C910296E7CF85E0FA0187BFCE
:10785000E89507B600FCFDCF81E187BFE89531C010
:107860008437D1F465D064D08093280161D04EDF95
:10787000E0912001F0912101CF0101969093210127
:1078800080932001849141D0809128018150809380
:1078900028018111EDCF15C0853739F437DF8EE12E
:1078A00034D085E932D08FE060CF813549F42EDFC6
:1078B0006BEB82E090E08ED080E127D080E004C0C6
:1078C00025DF80E122D081E0CF5FDE4FDEBFCDBF7C
:1078D000DF91CF911F910F9108958091C00087FF94
:1078E00005C053D081E0809326011FCF81E0089529
:1078F00082E08093C00088E18093C10086E080939D
:10790000C20080E18093C40008959091C00095FF6B
:10791000FCCF8093C60008958F708A3008F0895F8D
:107920009091C00095FFFCCF805D8093C6000895C4
:107930008091C00087FFFCCF8091C00084FFDEDE15
:107940008091C6000895809184009091850092FFF7
:1079500005C025B132E0232725B901C0299820911F
:10796000290130912A018217930750F420912201B6
:10797000309123012F5F3F4F309323012093220149
:1079800090932A0180932901089510922301109267
:107990002201089582E090E015D08F3F41F081E010
:1079A00020912201309123012430310508F480E038
:1079B0000895FB01DC0102C005900D92415050403A
:1079C000D8F70895F999FECF92BD81BDF89A99270D
:1079D00080B50895262FF999FECF1FBA92BD81BDBB
:1079E00020BD0FB6F894FA9AF99A0FBE0196089541
:0479F000F894FFCF39
:1079F40080C0A80101FFFFFF00DEADBEEFFEEDC0B9
:0C7A0400A801800000000007D08055554C
:040000030000700089
:00000001FF
