:1070000050C00000CCC00000CAC00000C8C00000D2
:10701000C6C00000C4C00000C2C00000C0C0000064
:10702000BEC00000BCC00000BAC00000B8C0000074
:10703000B6C00000B4C00000B2C00000B0C0000084
:10704000AEC00000ACC00000AAC00000A8C0000094
:10705000A6C00000A4C00000A2C00000A0C00000A4
:107060009EC000009CC000001300050000496E7621
:10707000616C696420696D6167652066696C650093
:1070800008000500004572726F72000900050003D8
:1070900046756C6C000A000500004F70636F6465F4
:1070A0003F0011241FBECFEFD8E0DEBFCDBF11E0FF
:1070B000A0E0B1E0E8E8FAE702C005900D92AC313B
:1070C000B107D9F711E0ACE1B1E001C01D92AD32DA
:1070D000B107E1F701D0D6C43BD32FEF85EA9EE09C
:1070E000215080409040E1F700C00000112485E06D
:1070F0008093810080E090E0AFD4882321F060E0AD
:1071000080E090E0B1D481E090E0A6D4843021F01A
:1071100064E081E090E0A8D42ED39AD02ED2EFEF95
:10712000F5EA2EE0E150F0402040E1F700C0000019
:1071300010922B0110922C0113E0C0E0D0E080915E
:107140002B01882329F080912C01882349F004C069
:1071500037D28111F8CF1CC073D3811106C016C07D
:107160008ED32ED38111F8CF13C082E090E074D477
:107170008E3E71F080912C01813041F4FE0110931C
:107180005700E895FAD153D310922C012ED3D7CFC4
:10719000E0911C01F0911D01099580E090E030CF55
:1071A00020E52CBD2A9820EF2EBD0DB407FEFDCFA3
:1071B000292F33272EBD0DB407FEFDCF8EBD0DB494
:1071C00007FEFDCF6EBD0DB407FEFDCF2A9A1CBC95
:1071D000089520E52CBD2A982FE02EBD0DB407FEA2
:1071E000FDCF292F33272EBD0DB407FEFDCF8EBD59
:1071F0000DB407FEFDCF1EBC0DB407FEFDCF2A9ACD
:107200008EB51CBC08951F93CF93DF93EC01E1DF93
:10721000182FCE010196DDDF212F30E0322F2227FB
:10722000A901482BCA01DF91CF911F9108950F93B7
:107230001F93CF93DF938C01EB01672F7727B0DF8C
:107240006C2FC8010196DF91CF911F910F91A8CFAC
:107250000F931F93CF93DF938CE284B98CE385B9AE
:10726000259A2D9A81E08DBD83E090E0F5D3853598
:1072700029F000E011E0C0E0D0E013C084E090E02D
:10728000EBD38A3AB1F701E011E0C5E0D0E0CE01DE
:10729000E3D3F80181938F012196C731D105B9F766
:1072A000E8CFF80161918F01CE017ADF2196CC31D0
:1072B000D105B9F7DF91CF911F910F910895CF9329
:1072C000DF93EC0160E181E097E06ADFBE0184E0DA
:1072D00097E0ADDF62E080E097E062DF61E081E0AF
:1072E00097E05EDF83E097E074DF823221F060E1B7
:1072F00081E097E055DF83E097E06BDF823231F782
:10730000DF91CF910895AF92BF92CF92DF92EF922B
:10731000FF920F931F93CF93DF93CDB7DEB7CD507E
:10732000D240DEBFCDBF88E297E06DDF009711F459
:1073300080E098E78E010F5F1F4F5E0123EFA21AD6
:107340002DEFB20A68010A151B0589F07C01EFEFE9
:10735000EE1AFE0A3EDFF80181938F01E114F0E896
:10736000FF0619F4E12C38E7F32EC701ECCFBC017E
:1073700088E297E05CDF60E481E097E011DF81E084
:1073800097E027DF8111FBCF76010CE017E0F701D2
:1073900061917F01C80104DF0F5F1F4F0231F7E0E9
:1073A0001F07A9F7EF80F12CFE2CEE248885E80E4C
:1073B000F11C898590E0982F88272A85820F911DDE
:1073C0000B8510E0102F00272C85020F111D833034
:1073D000910579F409331105A8F580911E0190916A
:1073E0001F010817190770F101968017910750F1D6
:1073F00024C025E0E21622E0F20620F58430910553
:10740000C8F48130910529F10297E1F410D26FEFB1
:1074100082E090E029D38091290190912A014FDFE9
:1074200010921F0110921E01109221011092200152
:1074300072E093C0069768F005C0F5E0EF16F2E041
:10744000FF0648F08091290190912A0138DF71E010
:1074500084C070E082C0EBD184E0E81AF108109398
:1074600021010093200101501109102F0027110F55
:10747000C8018E0D9F1D8130904708F06DC0E1144A
:10748000F2E0FF0610F474E001C072E0C7018F77EC
:107490009927892B21F02FEFE21AF20AF7CF011575
:1074A000110551F0DE011D9620E030E081E093E00F
:1074B00065E0F1E1BF2E3CC0CE010D96C35FDD4F0C
:1074C0007883CD50D24030D1C35FDD4F7881CD502D
:1074D000D2408111E7CF75E040C0F601E20FF31F03
:1074E000458550E0542F4427EC914E2BF8010A01BA
:1074F00080935700E89511242E5F3F4FA9014F77E5
:107500005527452B91F4F801EE57F1099093570058
:10751000E89507B600FCFDCF60935700E89507B6E5
:1075200000FCFDCFB0925700E89512960E5F1F4FFA
:107530002E153F0590F2743081F46EEE82E090E0FB
:10754000C35FDD4F7883CD50D2408ED2C35FDD4F15
:107550007881CD50D24001C073E0872FC35FDD4FEB
:10756000DEBFCDBFDF91CF911F910F91FF90EF90C4
:10757000DF90CF90BF90AF900895CF9385E490E0D7
:107580009EDE87E190E068D28B3B91F489E190E048
:1075900063D2C82F88E190E05FD22C2F30E0322FE9
:1075A0002227280F311D30932A012093290106C07C
:1075B00089E797EB90932A0180932901CF91089551
:1075C000AF92BF92CF92DF92EF92FF920F931F93F1
:1075D000CF93DF93CDB7DEB7C456D109DEBFCDBFA1
:1075E00086E297E010DE892B11F481E08EC081E005
:1075F00080932C0182E097E0ECDD82FF0EC064E016
:1076000082E097E0CDDD2FEF37E883E12150304075
:107610008040E1F700C00000EDCF75DEB82E84E2B7
:1076200097E0F1DD8C01185A92E0B91661F19B15D3
:1076300020F0E1E0BE16A9F006C0F3E0BF16D1F0DD
:1076400024E0B21679F14AE050E060E870E7CE013C
:107650000196F9D18AE0FE0131967F01A82EAE0E87
:107660003CC04CE050E065E970E7CE010196EBD1FB
:107670008CE0F1CF49E050E06BE870E7CE01019675
:10768000E2D189E0E8CF20912001309121014091A1
:107690001E0150911F014217530720F430931F0120
:1076A00020931E01198284E08A8320912001309169
:1076B00021013B832C83CFCFF70161917F016801CA
:1076C000FFEFCF1ADF0AC8016BDDC11420E6D20636
:1076D00019F4C12C58E5D52E8601AE10EDCFB801B6
:1076E000785584E297E0A3DD60E281E097E058DD21
:1076F00081E097E06EDD8111FBCF34E0B31275CFEE
:1077000060E181E097E04CDD80E0CC59DF4FDEBFE7
:10771000CDBFDF91CF911F910F91FF90EF90DF9040
:10772000CF90BF90AF90089520E030E0FC01E20FD1
:10773000F31F40814C3051F44181443939F42C5FBE
:107740003F4F2433310591F781E0089580E008959B
:1077500084B714BE98E10FB6F8949093600010922D
:1077600060000FBE0895A8950895E0E6F0E098E166
:1077700090838083089582E08093C00088E18093A5
:10778000C10086E08093C20080E18093C400089528
:107790009091C00095FFFCCF8093C60008958F7034
:1077A0008A3008F0895F805DF3CF8091C00087FF49
:1077B000FCCF8091C00084FFD6DF8091C600089581
:1077C000CF93DF931F92CDB7DEB79091C00097FFA4
:1077D00007C089832CD091E090932B01898101C04F
:1077E00081E00F90DF91CF91089580918400909176
:1077F000850092FF05C025B130E2232725B901C0DD
:107800002D9820912401309125018217930750F47F
:1078100020912201309123012F5F3F4F30932301AC
:1078200020932201909325018093240108951092C2
:107830008500109284001092230110922201089575
:10784000E0E0F0E085919491019641F081E0209193
:107850002201309123012530310508F480E008959C
:10786000A4DF803219F088E080DFFFCF84E190CF81
:10787000CF93C82F9ADFC150E9F7CF91F1CFEF92A4
:10788000FF920F931F93CF93DF93CDB7DEB7C15015
:10789000D140DEBFCDBF89DF8134A9F486DFCF5F61
:1078A000DE4F8883C150D140DBDFCF5FDE4F888160
:1078B000C150D140823811F484E003C08138F9F01E
:1078C00083E066DFB2C0823411F484E103C0853402
:1078D00019F484E0CDDFA9C0853569F466DF182F7F
:1078E00064DF212F30E0382B220F331F3093280123
:1078F0002093270199C0863521F484E0B9DF80E028
:10790000E0CF843609F060C050DF4FDF809326015E
:107910004CDFE0912701F0912801E11580E7F8079D
:1079200020F483E080935700E8958E010F5F1F4F8E
:1079300078013BDFF80181938F018091260181500E
:10794000809326018111F5CFE0912701F091280164
:10795000E11580E7F80720F083E080935700E89571
:107960007FDF07B600FCFDCF209127013091280171
:10797000890102581F4FC9016981A701421B530B9E
:10798000FF24F394DA01A80FB91F1196EC91119717
:1079900070E07E2BFC010B01F0925700E89511245A
:1079A0008017910721F0029612966C91EBCF85E03B
:1079B000F90180935700E89507B600FCFDCF81E1FF
:1079C00080935700E89531C08437D1F4EEDEEDDEC8
:1079D00080932601EADE44DFE0912701F09128013F
:1079E000CF01019690932801809327018491D0DEE6
:1079F000809126018150809326018111EDCF15C021
:107A0000853739F42DDF8EE1C3DE85E9C1DE8FE0F5
:107A100058CF813549F424DF6EEE82E090E024D027
:107A200080E1B6DE80E004C01BDF80E1B1DE81E0F2
:107A3000CF5FDE4FDEBFCDBFDF91CF911F910F91A2
:107A4000FF90EF900895FB01DC0102C005900D92BC
:107A500041505040D8F70895F999FECF92BD81BDAD
:107A6000F89A992780B50895262FF999FECF1FBA65
:107A700092BD81BD20BD0FB6F894FA9AF99A0FBE57
:087A800001960895F894FFCF70
:107A880080C0A80101FFFFFF00DEADBEEFFEEDC024
:0C7A9800A801800000000007D0805555B8
:040000030000700089
:00000001FF
