:1070000050C00000C5C00000C3C00000C1C00000E7
:10701000BFC00000BDC00000BBC00000B9C0000080
:10702000B7C00000B5C00000B3C00000B1C0000090
:10703000AFC00000ADC00000ABC00000A9C00000A0
:10704000A7C00000A5C00000A3C00000A1C00000B0
:107050009FC000009DC000009BC0000099C00000C0
:1070600097C0000095C000001300050000496E762F
:10707000616C696420696D6167652066696C650093
:1070800008000500004572726F72000900050003D8
:1070900046756C6C000A000500004F70636F6465F4
:1070A0003F0011241FBECFEFD8E0DEBFCDBF11E0FF
:1070B000A0E0B1E0E4ECFAE702C005900D92A03246
:1070C000B107D9F711E0A0E2B1E001C01D92AF32E3
:1070D000B107E1F701D0F4C414BE88E10FB6F8940B
:1070E00080936000109260000FBE8FEF93ECA9E0D8
:1070F00081509040A040E1F700C00000112485E0DD
:107100008093810080E090E0C5D4882321F080E066
:1071100090E060E0C7D481E090E0BCD4843021F0FE
:1071200081E090E064E0BED444D394D09CD046D2B9
:1071300010922D0110922E0113E0C0E0D0E080915A
:107140002D01882319F45DD28823E9F080912E0166
:10715000882319F454D38823B1F087D3882389F086
:1071600082E090E097D48E3E71F080912E018130C4
:1071700041F4FE0110935700E89520D26DD3109290
:107180002E0148D3DCCFEE27FF27099480E090E062
:1071900037CF20E52CBD2A9820EF2EBD0DB407FE79
:1071A000FDCF292F33272EBD0DB407FEFDCF8EBD99
:1071B0000DB407FEFDCF4EBD0DB407FEFDCF2A9ADC
:1071C0001CBC0895EF92FF921F93CF93DF93EC01C5
:1071D000162F7A01452F5527DCDFCE010196612F4E
:1071E0004E2DD7DFDF91CF911F91FF90EF90089543
:1071F00020E52CBD2A982FE02EBD0DB407FEFDCF53
:10720000292F33272EBD0DB407FEFDCF8EBD0DB443
:1072100007FEFDCF1EBC0DB407FEFDCF2A9A8EB52A
:107220001CBC08950F931F93CF93DF93EC01162F8F
:10723000DFDF082FCE010196612FDADF202F30E04B
:10724000322F222790E0822B932BDF91CF911F9139
:107250000F9108958CE385B98CE284B95C9A549AB5
:1072600081E08DBD08950F931F93CF93DF9383E04B
:1072700090E010D4853591F484E090E00BD48A3A04
:1072800069F401E011E0C5E0D0E0CE0103D4F801DB
:1072900081938F012196C731D105B9F700E011E044
:1072A000C0E0D0E0F80141918F01CE0160E071DFD4
:1072B0002196CC31D105B1F7DF91CF911F910F917C
:1072C0000895CF93DF93EC0181E097E06CE640E115
:1072D00060DF81E097E068E68BDF8823D1F782E00A
:1072E00097E06CE64FEF55DF80E097E06CE642E018
:1072F00050DF84E097E06CE6AE0164DF81E097E068
:107300006CE641E046DF81E097E068E671DF8823C4
:10731000D1F783E097E068E66BDF823229F081E005
:1073200097E06CE640E135DF83E097E068E660DFF8
:107330008232A9F6DF91CF910895BF92CF92DF926A
:10734000EF92FF920F931F93CF93DF93CDB7DEB7EA
:10735000CC50D240DEBFCDBF88E297E068E662DF66
:10736000AC01009711F440E058E7ADE0CA2EA2E06E
:10737000DA2ECC0EDD1E7E010894E11CF11C10C03B
:107380008A010F5F1F4FCA0160E032DFF70181936E
:107390007F01F0E800301F0711F400E018E7A801B2
:1073A000EC14FD0469F788E297E06CE60BDF81E0FE
:1073B00097E06CE640E4EDDE81E097E068E618DFF8
:1073C0008823D1F78E010F5F1F4FFCE0EF2EF7E00F
:1073D000FF2EF80141918F01C7016CE6DADE0894B7
:1073E000E11CF11CF2E1EF16F7E0FF0691F7EF80E8
:1073F000FF24FE2CEE248885E80EF11C898590E0A0
:10740000982F88272A85820F911D0B8510E0102F59
:1074100000272C85020F111D8330910589F4093353
:10742000110560F42091200130912101021713070A
:1074300028F02F5F3F4F2017310710F480E090E0D5
:1074400025E0E21622E0F20608F09DC083309105A7
:1074500029F18430910548F48130910509F49AC0EE
:107460008230910509F08FC005C08630910508F083
:107470008AC090C0F1D182E090E06FEF13D3809189
:107480002B0190912C011DDF1092210110922001FF
:10749000109223011092220102E081C0DDD14CEF55
:1074A000C42E4FEFD42ECE0CDF1C1093230100937B
:1074B000220178010894E108F108FE2CEE24FF0C6B
:1074C000C7018C0D9D1DE0E781309E0708F064C068
:1074D000F0E0CF16F2E0DF0610F404E005C002E0B1
:1074E00003C00894C11CD11CC6018F77907000970F
:1074F000C1F7E114F10431F4CE010D9648D188238F
:1075000009F44CC0DE011E9640E050E061E073E0FB
:1075100015E031E1B32E2DC08C9190E0382F222759
:10752000FD013197808190E0282B392BF70109016B
:1075300060935700E89511244E5F5F4FCA018F7723
:107540009070009789F4EE57F04070935700E895DB
:1075500007B600FCFDCF10935700E89507B600FC76
:10756000FDCFB0925700E895129682E090E0E80EC9
:10757000F91E4C155D0580F2043089F482E090E03C
:107580006EEE90D20CC080912B0190912C0199DE6F
:1075900001E005C000E003C003E001C005E0802F6A
:1075A000C45FDD4FDEBFCDBFDF91CF911F910F9143
:1075B000FF90EF90DF90CF90BF900895CF9385E438
:1075C00090E07FDE87E190E065D28B3B91F489E12A
:1075D00090E060D2C82F88E190E05CD22C2F30E0A0
:1075E000322F2227280F311D30932C0120932B019D
:1075F00006C089E797EB90932C0180932B01CF91E4
:107600000895AF92BF92CF92DF92FF920F931F9394
:10761000CF93DF93CDB7DEB7C556D040DEBFCDBF29
:1076200086E297E068E6FEDD009709F4A1C081E0FC
:1076300080932E010EC082E097E06CE644E0A9DD65
:107640008FEF97E8A3E181509040A040E1F700C0A0
:10765000000082E097E068E6CBDD82FDECCF6DDED6
:10766000F82E84E297E060E0DDDDC12C08E5D02E45
:10767000C80ED91E92E0F91659F19F1520F0A1E02D
:10768000FA1639F413C0B3E0FB16C9F0E4E0FE16B5
:1076900071F1CE01019660E870E74AE050E0F1D167
:1076A0002AE05E010894A11CB11C2CC0CE010196F9
:1076B00065E970E74CE050E0E4D12CE0F2CFCE0178
:1076C00001966BE870E749E050E0DBD129E0E9CFB3
:1076D000809122019091230120912001309121017C
:1076E0002817390720F490932101809320011982F3
:1076F00084E08A8380912201909123019B838C8373
:1077000024E0CFCF86010F5F1F4FD5014D915D0162
:10771000C60164E7A6962FAFA6973BDDA6962FADD0
:10772000A697B0E600301B0711F0680103C0C12C1A
:1077300018E5D12E215031F7A6014050584584E27A
:1077400097E06CE63FDD81E097E06CE640E221DD0A
:1077500081E097E068E64CDD8823D1F7E4E0FE168F
:1077600039F481E097E06CE640E113DD80E001C090
:1077700081E0CB59DF4FDEBFCDBFDF91CF911F91AD
:107780000F91FF90DF90CF90BF90AF900895FC01D4
:1077900080E090819C3049F49181943941F48C5F70
:1077A00034968433B1F781E0089580E0089580E055
:1077B000089582E08093C00088E18093C10086E054
:1077C0008093C20080E18093C40008959091C0002E
:1077D00095FFFCCF8093C60008958F708A3008F023
:1077E000895F805DF3CF8091C00087FFFCCF8091DF
:1077F000C00084FD01C0A8958091C60008958091C5
:10780000C00087FF05C028D081E080932D0155C0BE
:1078100081E00895809184009091850092FF05C0D9
:1078200025B130E2232725B901C02D9820912401EC
:10783000309125018217930750F420912601309151
:1078400027012F5F3F4F309327012093260190930C
:1078500025018093240108951092850010928400E0
:1078600010922701109226010895E0E0F0E0859142
:1078700094912FEF8F3F920751F081E020912601E4
:10788000309127012530310518F480E0089580E01B
:107890000895A9DF803239F088E18093600088E0A4
:1078A00080936000FFCF84E191CFCF93C82F9BDFFF
:1078B000C150E9F7EEDFCF9108950F931F93CF9357
:1078C000DF93CDB7DEB7C150D140DEBFCDBF8BDF78
:1078D0008134A9F488DFCF5FDE4F8883C150D14067
:1078E000D8DFCF5FDE4F8881C150D140823811F49C
:1078F00084E003C0813811F183E068DFB6C08234D0
:1079000011F484E103C0853419F484E0CEDFADC006
:10791000853581F468DF082F10E065DF90E0982F4F
:107920008827802B912B880F991F90932901809392
:1079300028019AC0863521F484E0B7DF80E0DDCFEE
:10794000843609F061C04FDF4EDF80932A014BDFA0
:10795000E0912801F091290180E7E030F80720F458
:1079600083E080935700E8958E010F5F1F4F3BDF48
:10797000F80181938F0180912A01815080932A011F
:107980008823A9F7E0912801F091290180E7E030F0
:10799000F80720F083E080935700E8957ADF07B678
:1079A00000FCFDCF60912801709129010981FB0144
:1079B00040E451E09E012F5F3F4F261B370B10E044
:1079C000D901AE0FBF1F11968C91119790E0982F9F
:1079D0008827802B912B0C0150935700E895112498
:1079E000415029F012960C9112973296E8CF85E01B
:1079F000FB0180935700E89507B600FCFDCF81E1BD
:107A000080935700E89531C08437D1F4ECDEEBDE8B
:107A100080932A01E8DE3DDFE0912801F091290101
:107A2000CF01019690932901809328018491CEDEA5
:107A300080912A01815080932A01882369F715C01B
:107A4000853739F426DF8EE1C1DE85E9BFDE8FE0C0
:107A500054CF813549F41DDF82E090E06EEE22D0F4
:107A600080E1B4DE80E004C014DF80E1AFDE81E0BD
:107A7000CF5FDE4FDEBFCDBFDF91CF911F910F9162
:107A80000895FB01DC0102C005900D924150504069
:107A9000D8F70895F999FECF92BD81BDF89A99273C
:107AA00080B50895262FF999FECF1FBA92BD81BDEA
:107AB00020BD0FB6F894FA9AF99A0FBE0196089570
:047AC000F894FFCF68
:107AC40080C0A85401FFFFFF00DEADBEEFFEEDC095
:107AD400A854800000000007D08055550F020A000A
:040000030000700089
:00000001FF
