:1070000050C00000CAC00000C8C00000C6C00000D8
:10701000C4C00000C2C00000C0C00000BEC000006C
:10702000BCC00000BAC00000B8C00000B6C000007C
:10703000B4C00000B2C00000B0C00000AEC000008C
:10704000ACC00000AAC00000A8C00000A6C000009C
:10705000A4C00000A2C00000A0C000009EC00000AC
:107060009CC000009AC000001300050000496E7625
:10707000616C696420696D6167652066696C650093
:1070800008000500004572726F72000900050003D8
:1070900046756C6C000A000500004F70636F6465F4
:1070A0003F0011241FBECFEFD8E0DEBFCDBF11E0FF
:1070B000A0E0B1E0EEE6FAE702C005900D92AC3137
:1070C000B107D9F711E0ACE1B1E001C01D92AD32DA
:1070D000B107E1F701D0C9C43CD32FEF85EA9EE0A8
:1070E000215080409040E1F700C00000112485E06D
:1070F0008093810080E090E0A2D4882321F060E0BA
:1071000080E090E0A4D481E090E099D4843021F034
:1071100064E081E090E09BD423D498D0B8D2EFEF24
:10712000F5EA2EE0E150F0402040E1F700C0000019
:10713000109228011092290113E0C0E0D0E0809164
:107140002801882329F080912901882349F004C06F
:10715000C1D28111F8CF1AC059D4811105C014C011
:10716000F4D38111F9CF12C082E090E068D48E3E52
:1071700069F080912901813039F4FE0117BFE8954B
:1071800086D23BD41092290116D4D9CFE0911C01AC
:10719000F0911D01099580E090E032CF20E52CBDF3
:1071A0002A9820EF2EBD0DB407FEFDCF292F3327DF
:1071B0002EBD0DB407FEFDCF8EBD0DB407FEFDCF75
:1071C0006EBD0DB407FEFDCF2A9A1CBC089520E5C4
:1071D0002CBD2A982FE02EBD0DB407FEFDCF292F20
:1071E00033272EBD0DB407FEFDCF8EBD0DB407FEB7
:1071F000FDCF1EBC0DB407FEFDCF2A9A8EB51CBC78
:1072000008951F93CF93DF93EC01E1DF182FCE0198
:107210000196DDDF212F30E0322F2227A901482BF4
:10722000CA01DF91CF911F9108950F931F93CF93C0
:10723000DF938C01EB01672F7727B0DF6C2FC8013C
:107240000196DF91CF911F910F91A8CF0F931F93BC
:10725000CF93DF938CE284B98CE385B981E08DBD57
:1072600083E090E0ECD3853529F000E011E0C0E048
:10727000D0E013C084E090E0E2D38A3AB1F701E0B5
:1072800011E0C5E0D0E0CE01DAD3F80181938F019F
:107290002196C731D105B9F7E8CFF80161918F0187
:1072A000CE017CDF2196CC31D105B9F7DF91CF91AA
:1072B0001F910F910895CF93DF93EC0160E181E07E
:1072C00097E06CDFBE0184E097E0AFDF62E080E032
:1072D00097E064DF61E081E097E060DF83E097E0C2
:1072E00076DF823221F060E181E097E057DF83E0D2
:1072F00097E06DDF823231F7DF91CF910895CF9221
:10730000DF92EF92FF920F931F93CF93DF93CDB74E
:10731000DEB7CC50D240DEBFCDBF88E297E071DF50
:10732000009711F480E098E78E010F5F1F4F6E0108
:1073300023EFC21A2DEFD20A7C01EFEFEE1AFE0AFC
:1073400046DFF80181938F01E114F0E8FF0611F0A8
:10735000C70102C080E098E70C151D0569F7BC0164
:1073600088E297E062DF60E481E097E017DF81E088
:1073700097E02DDF8111FBCFEE24E394F12CEC0E8E
:10738000FD1E0CE017E0F70161917F01C80106DFE7
:107390000F5F1F4F0231F7E01F07A9F7EF80F12CB5
:1073A000FE2CEE248885E80EF11C898590E0982F4C
:1073B00088272A85820F911D0B8510E0102F00274A
:1073C0002C85020F111D8330910591F409331105AD
:1073D00008F0ADC080911E0190911F010817190798
:1073E00008F4A5C001968017910708F4A0C0AFC0AB
:1073F00025E0E21622E0F20608F099C084309105FB
:1074000040F48130910509F49AC0029709F08FC0C9
:1074100004C0069708F08BC092C0EFD26FEF82E0F5
:1074200090E015D3809126019091270144DF1092BE
:107430001F0110921E01109221011092200112E0F2
:10744000D12E8BC0DAD284E0E81AF1081093210122
:107450000093200101501109102F0027110FA801DE
:1074600060E070E0DB01CA018E0D9F1DA11DB11D02
:1074700081309047A105B10508F063C0E114F2E046
:10748000FF0618F4A4E0DA2E06C0F2E0DF2E03C0F7
:107490002FEFE21AF20AC7018F779927892BC1F7DC
:1074A000452B462B472B31F4CE010D963ED1882338
:1074B00009F44AC0DE011D9620E030E081E093E04F
:1074C00065E071E129C0E1E0F0E0EC0FFD1FE20FA3
:1074D000F31F458550E0542F4427EC914E2BF801C3
:1074E0000A0187BFE89511242E5F3F4FA9014F770E
:1074F0005527452B71F4EE57F10997BFE89507B66C
:1075000000FCFDCF67BFE89507B600FCFDCF77BF55
:10751000E89512960E5F1F4F2E153F05A0F2F4E07E
:10752000DF121BC06EEE82E090E091D216C0809117
:10753000260190912701BFDEDD24D3940EC0D12C0B
:107540000CC093E0D92E09C085E0D82E06C025E0F6
:10755000E21622E0F20658F775CF8D2DC45FDD4F9D
:10756000DEBFCDBFDF91CF911F910F91FF90EF90C4
:10757000DF90CF900895BF92CF92DF92EF92FF926B
:107580000F931F93CF93DF93CDB7DEB7C456D109C6
:10759000DEBFCDBF8C0184E297E033DE985A7C01D8
:1075A0000230110559F120F40130110539F414C0ED
:1075B00003301105D1F00430110579F14AE050E0B3
:1075C00060E870E7CE01019631D28AE08E010F5F4C
:1075D0001F4FB82EB00E3DC04CE050E065E970E79B
:1075E000CE01019623D28CE0F1CF49E050E06BE868
:1075F00070E7CE0101961AD289E0E8CF8091200190
:107600009091210120911E0130911F012817390707
:1076100020F490931F0180931E01198284E08A83D5
:1076200080912001909121019B838C8384E0CECFB7
:10763000F80161918F016701FFEFCF1ADF0AC701DF
:10764000ADDDC11480E6D80619F4C12C58E5D52E5D
:107650007601B012EDCFB701785584E297E0E5DD11
:1076600060E281E097E09ADD81E097E0B0DD811192
:10767000FBCFCC59DF4FDEBFCDBFDF91CF911F9144
:107680000F91FF90EF90DF90CF90BF900895CF9330
:1076900085E490E010DE87E190E0D1D18B3B91F45E
:1076A00089E190E0CCD1C82F88E190E0C8D12C2F9F
:1076B00030E0322F2227280F311D309327012093ED
:1076C000260106C089E797EB909327018093260156
:1076D000CF910895CF9386E297E093DD892B11F443
:1076E00081E021C081E0809329010DC064E082E047
:1076F00097E054DD2FEF87E893E1215080409040E0
:10770000E1F700C0000082E097E061DD82FDEECF8E
:10771000F6DDC82F90E02FDFC43011F760E181E083
:1077200097E03CDD80E0CF91089520E030E0FC015F
:10773000E20FF31F40814C3051F44181443939F458
:107740002C5F3F4F2433310591F781E0089580E0AD
:10775000089584B714BE98E10FB6F8949093600032
:10776000109260000FBE0895A8950895E0E6F0E03D
:1077700098E190838083089513D1803219F088E0D6
:10778000F5DFFFCF84E1F9C0CF93C82F09D1C150F5
:10779000E9F7CF91F1CF0F931F93CF93DF93CDB73D
:1077A000DEB7C150D140DEBFCDBFFAD08134B1F4D5
:1077B000F7D0CF5FDE4F8883C150D140DDDFCF5F90
:1077C000DE4F8881C150D140823811F484E004C07A
:1077D000813809F41FC083E0D0D0ABC0823411F4EB
:1077E00084E103C0853419F484E0CEDFA2C085357E
:1077F00069F4D6D0182FD4D0212F30E0382B220FA7
:10780000331F309323012093220192C0863521F447
:1078100084E0BADF80E0E0CF843609F059C0C0D000
:10782000BFD080932A01BCD0E0912201F0912301C6
:10783000E11580E7F80718F483E087BFE8958E012B
:107840000F5F1F4FADD0F80181938F0180912A0106
:10785000815080932A018111F5CFE0912201F091AE
:107860002301E11580E7F80718F083E087BFE8956A
:1078700083DF07B600FCFDCF409122015091230128
:10788000298180E090E061E0A1E0B0E0AC0FBD1F95
:10789000A80FB91FFC01E40FF51F11967C911197F9
:1078A00030E0372B090167BFE89511248E37910529
:1078B00021F012962C910296E7CF85E0FA0187BF5E
:1078C000E89507B600FCFDCF81E187BFE89531C0A0
:1078D0008437D1F465D064D080932A0161D04CDF25
:1078E000E0912201F0912301CF01019690932301B1
:1078F00080932201849141D080912A01815080930C
:107900002A018111EDCF15C0853739F435DF8EE1BD
:1079100034D085E932D08FE05FCF813549F42CDF58
:107920006EEE82E090E093D080E127D080E004C04A
:1079300023DF80E122D081E0CF5FDE4FDEBFCDBF0D
:10794000DF91CF911F910F9108958091C00087FF23
:1079500005C053D081E0809328011DCF81E00895B8
:1079600082E08093C00088E18093C10086E080932C
:10797000C20080E18093C40008959091C00095FFFB
:10798000FCCF8093C60008958F708A3008F0895F1D
:107990009091C00095FFFCCF805D8093C600089554
:1079A0008091C00087FFFCCF8091C00084FFDCDEA7
:1079B0008091C6000895809184009091850092FF87
:1079C00005C025B130E2232725B901C02D982091AB
:1079D0002B0130912C018217930750F42091240140
:1079E000309125012F5F3F4F3093250120932401D3
:1079F00090932C0180932B01089510928500109292
:107A0000840010922501109224010895E0E0F0E036
:107A100085919491019641F081E02091240130916B
:107A200025012530310508F480E00895FB01DC01D3
:107A300002C005900D9241505040D8F70895F99931
:107A4000FECF92BD81BDF89A992780B50895262F63
:107A5000F999FECF1FBA92BD81BD20BD0FB6F89433
:0E7A6000FA9AF99A0FBE01960895F894FFCF96
:107A6E0080C0A80101FFFFFF00DEADBEEFFEEDC03E
:0C7A7E00A801800000000007D0805555D2
:040000030000700089
:00000001FF
